S01700004C504C445F4F56373637305F4B36302E73726563F9
S113500058EBFF1F1154000021540000C77F00001B
S1135010215400002154000021540000000000002D
S11350200000000000000000000000002154000007
S1135030215400000000000021540000215400000D
S1135040FF660000156700002B6700004167000041
S1135050576700006D6700008367000099670000D0
S1135060AF670000C5670000DB670000F167000060
S1135070076800001D6800003368000049680000EC
S11350802154000021540000215400002154000048
S11350902154000021540000215400002154000038
S11350A0DD8100003782000005790000AF7900003F
S11350B0597A00006F7C0000777C00007F7C000040
S11350C08D7C0000977C0000A17C0000A37C000084
S11350D0A57C0000A77C0000AF7C0000B77C00002A
S11350E0C57C0000CF7C0000F97C0000FB7C000044
S11350F0FD7C00001B770000215400004B7700006A
S1135100215400007B77000021540000AB7700009D
S113511021540000DB770000215400000B780000CC
S1135120215400009D880000A7880000215400003D
S11351302154000021540000298800003388000015
S11351403D88000021540000198500000000000083
S1135150AD840000C3840000D9840000EF84000003
S1135160BD830000118900002154000089830000E0
S1135170638300003D8300009F83000021540000EE
S113518021540000E9800000538100003D840000A8
S1135190215400007D88000021540000E1620000D9
S11351A0F362000005630000176300002963000038
S11351B02154000021540000215400002154000017
S11351C02154000021540000215400002154000007
S11351D021540000215400002154000021540000F7
S11351E0D17F0000D17F0000D17F0000D17F00007B
S11354100148804701480047AD7E00003954000030
S113542002F0D6BD012110F01F02914040B24009A4
S11354308E4A42F82010704780B572B600F086FCA0
S113544000F034F900F05CF900208949086001207B
S11354508849087000F05FF800F0B9F85720FFF7AA
S1135460E1FF62B6834800780328FBD1002082491B
S113547008600020814908600120804908600120FB
S11354807D49086000207D49086001207B4908604F
S113549000F00BF85FF0FF3079490860012075498E
S11354A008705720FFF7BEFFDCE738B5002411E091
S11354B000F016F87349088072480288210089B206
S11354C0280080B200F077FE6D1CADB2B5F5A07F68
S11354D0EEDB641CA4B2F02C01DA0025F5E731BD43
S11354E038B5002400250020644908600621664878
S11354F000F0F2FE040001206049086000205F49CA
S113550008600621604800F0E7FE050024022543F8
S1135510280080B232BD80B55B485C490860002039
S11355205A4908734FF47F5058494860002057493E
S11355308860564984B06846142200F023FF0FBCEB
S113554000F058FE50485149086000204F49087344
S113555020204E4948604E484C4988600FF2BD00F7
S11355604A490861494984B06846142200F00AFF98
S11355700FBC00F03FFE4448444908604548434995
S113558048600120414908730020404988603F4930
S113559084B06846142200F0F5FE0FBC00F02AFE29
S11355A039483A4908605FF0807038494860002003
S11355B036490873002035498860344984B0684608
S11355C0142200F0DFFE0FBC00F014FE01BD00B594
S11355D087B000203049087035202F494870FA20E0
S11355E02D49888001202C4988602C482A49C860AC
S11355F02B482949886101202749C883012026496D
S113560081F82400244984B068462C2200F0BAFEB4
S11356100FBC00F0F3FE07B000BD00001548007891
S1135620012813D11648006880060FD500201D49B3
S1135630086001201C49086002200E4908700120FE
S1135640194908600120174908600DE009480078ED
S1135650022809D10A480068800605D500201249AD
S113566008600320034908707047000000E100E06F
S11356704CCBFF1F52CBFF1F6800FE434400FE4388
S1135680A090044050CBFF1F00F00F40BC07FF1F49
S11356900200090000400A06D007FF1FD1F00F40A6
S11356A0FC07FF1F6400FE434C00FE4310B582B0AC
S11356B0002400208DF8000001F0E2F800F020F84A
S11356C08021122001F0FBF8002806D1641CA4B24A
S11356D0B4F5FA7FF4D1002011E000F011F80122B2
S11356E000A91C2001F012F90028F8D09DF8000050
S11356F07F2803D100F014F8012000E0002016BD3B
S1135700002005E000BF491C89B2C829FADB401C0F
S113571080B247F23051884201DA0021F4E7704741
S113572080B504213A2001F0CAF8D021402001F0CC
S1135730C6F81421122001F0C2F88021322001F0B1
S1135740BEF81621172001F0BAF80421182001F040
S1135750B6F80221192001F0B2F87B211A2001F0D9
S1135760AEF80621032001F0AAF800210C2001F074
S1135770A6F800213E2001F0A2F83A21702001F0A1
S11357809EF83521712001F09AF81121722001F060
S113579096F80021732001F092F80221A22001F072
S11357A08EF80021112001F08AF820217A2001F0DE
S11357B086F81C217B2001F082F828217C2001F04E
S11357C07EF83C217D2001F07AF855217E2001F0FD
S11357D076F868217F2001F072F87621802001F0AC
S11357E06EF88021812001F06AF88821822001F07E
S11357F066F88F21832001F062F89621842001F05D
S11358005EF8A321852001F05AF8AF21862001F02B
S113581056F8C421872001F052F8D721882001F0DE
S11358204EF8E821892001F04AF8E021132001F024
S113583046F80021002001F042F80021102001F078
S11358403EF800210D2001F03AF82821142001F03F
S113585036F80521A52001F032F80721AB2001F02C
S11358602EF87521242001F02AF86321252001F067
S113587026F8A521262001F022F878219F2001F0A6
S11358801EF86821A02001F01AF80321A12001F0DC
S113589016F8DF21A62001F012F8DF21A72001F07D
S11358A00EF8F021A82001F00AF89021A92001F0B7
S11358B006F89421AA2001F002F8E521132000F053
S11358C0FEFF61210E2000F0FAFF4B210F2000F0B3
S11358D0F6FF0221162000F0F2FF37211E2000F00F
S11358E0EEFF0221212000F0EAFF9121222000F0A6
S11358F0E6FF0721292000F0E2FF0B21332000F00E
S1135900DEFF0B21352000F0DAFF1D21372000F0E7
S1135910D6FF7121382000F0D2FF2A21392000F06F
S1135920CEFF78213C2000F0CAFF40214D2000F03A
S1135930C6FF20214E2000F0C2FF0021692000F0A4
S1135940BEFF60216B2000F0BAFF1921742000F023
S1135950B6FF4F218D2000F0B2FF00218E2000F011
S1135960AEFF00218F2000F0AAFF0021902000F05C
S1135970A6FF0021912000F0A2FF0021922000F058
S11359809EFF0021962000F09AFF80219A2000F0CB
S113599096FF8421B02000F092FF0C21B12000F08A
S11359A08EFF0E21B22000F08AFF8221B32000F086
S11359B086FF0A21B82000F082FF1421432000F062
S11359C07EFFF021442000F07AFF3421452000F0CE
S11359D076FF5821462000F072FF2821472000F06E
S11359E06EFF3A21482000F06AFF8821592000F018
S11359F066FF88215A2000F062FF44215B2000F0FA
S1135A005EFF67215C2000F05AFF49215D2000F011
S1135A1056FF0E215E2000F052FF0421642000F0A6
S1135A204EFF2021652000F04AFF0521662000F08A
S1135A3046FF0421942000F042FF0821952000F045
S1135A403EFF0A216C2000F03AFF55216D2000F042
S1135A5036FF11216E2000F032FF9F216F2000F0ED
S1135A602EFF40216A2000F02AFF4021012000F08F
S1135A7026FF4021022000F022FFE721132000F03E
S1135A801EFF0021152000F01AFF80214F2000F096
S1135A9016FF8021502000F012FF0021512000F059
S1135AA00EFF2221522000F00AFF5E21532000F055
S1135AB006FF8021542000F002FF9E21582000F0B0
S1135AC0FEFE0821412000F0FAFE00213F2000F0F4
S1135AD0F6FE0521752000F0F2FEE121762000F0AB
S1135AE0EEFE00214C2000F0EAFE0121772000F0B8
S1135AF0E6FEC2213D2000F0E2FE09214B2000F029
S1135B00DEFE6021C92000F0DAFE3821412000F0D9
S1135B10D6FE4021562000F0D2FE1121342000F0A0
S1135B20CEFE02213B2000F0CAFE8921A42000F011
S1135B30C6FE0021962000F0C2FE3021972000F01E
S1135B40BEFE2021982000F0BAFE3021992000F0FA
S1135B50B6FE84219A2000F0B2FE29219B2000F099
S1135B60AEFE03219C2000F0AAFE4C219D2000F0F3
S1135B70A6FE3F219E2000F0A2FE0421782000F022
S1135B809EFE0121792000F09AFEF021C82000F049
S1135B9096FE0F21792000F092FE0021C82000F02B
S1135BA08EFE1021792000F08AFE7E21C82000F0AC
S1135BB086FE0A21792000F082FE8021C82000F0B0
S1135BC07EFE0B21792000F07AFE0121C82000F02E
S1135BD076FE0C21792000F072FE0F21C82000F01F
S1135BE06EFE0D21792000F06AFE2021C82000F00D
S1135BF066FE0921792000F062FE8021C82000F0B1
S1135C005EFE0221792000F05AFEC021C82000F077
S1135C1056FE0321792000F052FE4021C82000F0F6
S1135C204EFE0521792000F04AFE3021C82000F004
S1135C3046FE2621792000F042FE0021092000F0D2
S1135C403EFE01BD0100481E89B2002907D0002193
S1135C5089B2B1F5C87FF5DA00BF491CF8E770478F
S1135C6000B587B000208DF804005FF0C0400290BA
S1135C7001208DF8120001208DF8110002208DF80A
S1135C80130002208DF810005FF400300390002010
S1135C908DF8140000208DF8150001A984B0684621
S1135CA0142200F06FFB0FBC00F098FF07B000BD9A
S1135CB000B587B0DFF82C0501904FF480500290B6
S1135CC001208DF8100001208DF8110000200390B0
S1135CD001A984B06846142200F054FB0FBC00F004
S1135CE089FA07B000BD5FF0C04108807047DFF853
S1135CF0F8140880704710B50C0080B2FFF7F3FF6A
S1135D00200080B2FFF7F3FF10BD10B50C000100B6
S1135D1020000C00010089B2DFF8D0048088FFF76E
S1135D20EAFF210089B2DFF8C404C088FFF7E3FF6B
S1135D3010BD80B50020DFF8B81408600A20FFF712
S1135D4081FF0120DFF8A814086001BD10B5002010
S1135D50FFF786FFFFF7ACFF3220FFF773FFFFF773
S1135D60E8FF48F68914A4B249F22030844240F096
S1135D70FA802220DFF8741448802020DFF86C14A5
S1135D8088802120DFF86414C88001210020FFF7F7
S1135D90B2FF0A20FFF756FF00210120FFF7ABFFF7
S1135DA04FF4E0610220FFF7A6FF41F2080103204F
S1135DB0FFF7A1FF00210420FFF79DFF40F202211D
S1135DC00820FFF798FF00210920FFF794FF002126
S1135DD00A20FFF790FF01210C20FFF78CFF002120
S1135DE00D20FFF788FF00210F20FFF784FF00211B
S1135DF01020FFF780FF00211120FFF77CFF002116
S1135E001220FFF778FF00211320FFF774FF41F2FF
S1135E10B0711020FFF76FFF40F237111120FFF728
S1135E206AFF0520FFF70EFF40F239111220FFF739
S1135E3062FF0520FFF706FF4FF4B8511320FFF768
S1135E405AFF00212920FFF756FF00212B20FFF7DE
S1135E5052FF0520FFF7F6FE00213020FFF74BFF2D
S1135E6040F207513120FFF746FF4FF48271322090
S1135E70FFF741FF40F205113520FFF73CFF40F2E8
S1135E8004413620FFF737FF40F203613720FFF764
S1135E9032FF04213820FFF72EFF07213920FFF7B6
S1135EA02AFF40F201513C20FFF725FF40F2044154
S1135EB03D20FFF720FF00215020FFF71CFFEF21BA
S1135EC05120FFF718FF00215220FFF714FF40F282
S1135ED03F115320FFF70FFF4FF41C516020FFF7D1
S1135EE00AFF01216120FFF706FF00216A20FFF766
S1135EF002FF00218020FFF7FEFE00218120FFF732
S1135F00FAFE00218220FFF7F6FE00218320FFF72E
S1135F10F2FE00218420FFF7EEFE00218520FFF72A
S1135F20EAFE10219020FFF7E6FE00219220FFF701
S1135F30E2FE03219320FFF7DEFE4FF488719520E3
S1135F40FFF7D9FE00219720FFF7D5FE0021982006
S1135F50FFF7D1FE40F233110720FFF7CCFE0320F8
S1135F60FFF770FE24E1A4B248F68910844240F0A1
S1135F701F812220DFF8741248804E20DFF86C1253
S1135F8088804F20DFF86412C88001210020FFF7C9
S1135F90B2FE0020FFF756FE4AF6A4010320FFF7E5
S1135FA0AAFE0020FFF74EFE00210C20FFF7A3FEFF
S1135FB00020FFF747FE40F60C010D20FFF79BFE83
S1135FC00020FFF73FFE4FF42C510E20FFF793FE05
S1135FD00020FFF737FEB0211E20FFF78CFE0020C3
S1135FE0FFF730FE42F63F110120FFF784FE002048
S1135FF0FFF728FE4FF4C0610220FFF77CFE00206B
S1136000FFF720FE00211020FFF775FE0020FFF7A8
S113601019FE46F228011120FFF76DFE0020FFF75C
S113602011FE00210520FFF766FE0020FFF70AFE9F
S113603000210620FFF75FFE0020FFF703FE4EF667
S11360401C711620FFF757FE0020FFF7FBFD03210C
S11360501720FFF750FE0020FFF7F4FD40F2332134
S11360600720FFF748FE0020FFF7ECFD20210B205E
S1136070FFF741FE0020FFF7E5FD00210F20FFF7A9
S11360803AFE0020FFF7DEFD00214120FFF733FE3A
S11360900020FFF7D7FD00214220FFF72CFE00204F
S11360A0FFF7D0FD00214820FFF725FE0020FFF771
S11360B0C9FD40F23F114920FFF71DFE0020FFF704
S11360C0C1FD00214A20FFF716FE0020FFF7BAFDAC
S11360D000214B20FFF70FFE0020FFF7B3FD40F235
S11360E007713020FFF707FE0020FFF7ABFD4FF4E8
S11360F001713120FFF7FFFD0020FFF7A3FD4FF4EE
S113610001713220FFF7F7FD0020FFF79BFD40F2FD
S113611002513320FFF7EFFD0020FFF793FD40F21B
S113612007513420FFF7E7FD0020FFF78BFD4FF404
S113613001713520FFF7DFFD0020FFF783FD4FF4E9
S113614001713620FFF7D7FD0020FFF77BFD40F2F9
S113615002513720FFF7CFFD0020FFF773FD40F217
S113616002313A20FFF7C7FD0020FFF76BFD40F234
S113617002313B20FFF7BFFD0020FFF763FD002144
S11361802320FFF7B8FD0020FFF75CFD0021242049
S1136190FFF7B1FD0020FFF755FD4FF40041252026
S11361A0FFF7A9FD0020FFF74DFD1420FFF74AFD7E
S11361B0200080B210BD10B5140080B2B0F5A07FED
S11361C002DA89B2F02900DB0AE089B280B2FFF773
S11361D09CFD210089B2DFF814004088FFF78BFD95
S11361E010BD000080F00F4000000160F004FF1FAC
S11361F03010FE430FB42DE9F8430A9850F480742C
S1136200089F099D9DF82C809DF82D900C9E4B486D
S1136210874203D335214A4800F066FE5FFA88F8C6
S1136220B8F1020F03DB3621454800F05DFE5FFA4A
S113623089F9B9F1020F03DB3721414800F054FE1C
S11362404048874210D1404900205FFA88F8B8F1ED
S1136250010F25D17A692A437A615FFA89F9B9F184
S1136260010F1BD17D601EE03848874202D13849B6
S11362700120EAE73748874202D137490220E4E7A0
S11362803648874202D136490320DEE73548874243
S113629002D135490420D8E7002019E0BD6002E0AE
S11362A07A69AA437A61002207E035FA02F3DB0730
S11362B002D5D2B241F82240521CD2B2202AF4DBD9
S11362C03100002903D0C0B2284941F820600120E0
S11362D0BDE8F2035DF814FB0069C840C0B2704722
S11362E080B52248006880475FF0FF30204908608D
S11362F001BD80B51D48406880475FF0FF301D49EF
S1136300086001BD80B51948806880475FF0FF30A0
S11363101949086001BD80B51448C06880475FF022
S1136320FF301649086001BD80B5104800698047F8
S11363305FF0FF301249086001BD000001F10F4019
S11363402887000000F00F400090044040F00F4008
S113635000A0044080F00F4000B00440C0F00F40A3
S113636000C0044000F10F4000D00440F406FF1FB9
S1136370A0900440A0A00440A0B00440A0C00440E9
S1136380A0D00440103A07D330B4B1E83810103A22
S1136390A0E83810F9D230BC530724BFB1E8081084
S11363A0A0E8081044BF51F8043B40F8043BD2076E
S11363B024BF31F8022B20F8022B44BF0B78037062
S11363C07047083A07D3B1E80810083A40F8043B8C
S11363D040F804CBF7D25307E4E750F8041B61B14B
S11363E050F8042BD30744BFA9F101039A180023E2
S11363F042F8043B091FFAD1EFE770470FB42DE9C7
S1136400F04F85B09DF838409DF839509DF83A001A
S11364108DF81000BDF83C6010980390119F9DF812
S11364204880BDF94A00ADF8020013980290DDF8E7
S113643050909DF854A0BDF95600ADF80000169890
S113644001909DF85CB0E4B2102C04DB3B21DFF832
S1136450100400F049FDEDB2402D04DB3C21DFF8CF
S1136460000400F041FDB6B2B6F5004F04DB3D2157
S1136470DFF8EC0300F038FD002F04D13E21DFF8F3
S1136480E00300F031FD5FFA88F8B8F1030F09DB8F
S11364905FFA88F8B8F1040F04D03F21DFF8C00395
S11364A000F022FDB9F1000F04D14021DFF8B00360
S11364B000F01AFD5FFA8AFABAF1030F09DB5FFAFA
S11364C08AFABAF1040F04D04121DFF8940300F0F2
S11364D00BFDDFF89003006850F00200DFF884132E
S11364E00860DFF88403006850F00200DFF87813D6
S11364F00860DFF8780300680121A1408843DFF8D1
S11365006C13086015F03F00E4B2DFF864136054C4
S11365109DF8100001280AD1E4B2DFF85403205C8E
S113652050F04000E4B2DFF84813605409E0E4B2EC
S1136530DFF83C03205C10F0BF00E4B2DFF8301356
S11365406054E4B26001DFF82C134750BDF8020038
S1136550E4B2610101F1804111F5104188805FFAD4
S113656088F85FEA082010F4E060E4B2610101F108
S1136570804111F51041C8800298E4B2610101F133
S1136580804111F51041C860E4B2600100F180401F
S113659010F51040C0F81090BDF80000E4B261019D
S11365A001F1804111F510418882E4B2600100F1EB
S11365B0804010F51040C0885FFA8AFA1AF007018B
S11365C00843E4B2610101F1804111F51041C88032
S11365D00198E4B2610101F1804111F51041886133
S11365E07004400CE4B2610101F1804111F51041E5
S11365F0C8827004400CE4B2610101F1804111F5DC
S11366001041C8830398E4B2610101F1804111F59E
S1136610104188600020E4B2610101F1804111F56C
S1136620104188831898002818D09DF85D0001282F
S113663014D1E4B2600100F1804010F51040808B69
S113664050F00200E4B2610101F1804111F5104102
S113665088831898E4B2884941F8240018980028DF
S113666018D09DF85E00012814D1E4B2600100F155
S1136670804010F51040808B50F00400E4B26101BA
S113668001F1804111F5104188831898E4B27A49E8
S113669041F824005FFA8BFBBBF1010F10D1E4B287
S11366A0600100F1804010F51040808B50F008002C
S11366B0E4B2610101F1804111F51041888310E0D9
S11366C0E4B2600100F1804010F51040808B4FF679
S11366D0F7710840E4B2610101F1804111F5104104
S11366E08883E4B26248205C50F08000E4B26049E0
S11366F06054012005B0BDE8F00F5DF814FB80B5CF
S11367005D48006880475D48006850F001005B49BF
S1136710086001BD80B55848406880475748006804
S113672050F002005549086001BD80B552488068A8
S113673080475248006850F004005049086001BD89
S113674080B54D48C06880474C48006850F0080048
S11367504A49086001BD80B54748006980474748F9
S1136760006850F010004549086001BD80B54248FA
S1136770406980474148006850F020003F49086064
S113678001BD80B53C48806980473C48006850F0B2
S113679040003A49086001BD80B53748C069804768
S11367A03648006850F080003449086001BD80B567
S11367B03148006A80473148006850F480702F499E
S11367C0086001BD80B52C48406A80472B480068AA
S11367D050F400702949086001BD80B52648806ADC
S11367E080472648006850F001002449086001BD34
S11367F080B52148C06A80472048006850F4006092
S11368001E49086001BD80B51B48006B80471B48CA
S1136810006850F480501949086001BD80B51648DD
S1136820406B80471548006850F4005013490860D5
S113683001BD80B51048806B80471048006850F453
S113684080400E49086001BD80B50B48C06B80478D
S11368500A48006850F400400849086001BD00007F
S1136860F88600003C800440408004400C800040D6
S113687000100240009000409806FF1F2480004052
S113688000B587B0CB4801900320029001208DF819
S1136890100001208DF811000020039001A984B09C
S11368A068461422FFF76EFD0FBCFFF7A3FC01201E
S11368B0C14908600120C149086007B000BD38B56E
S11368C004000D000120BE49086000F061F80028B2
S11368D001D1002019E0422000F012F900F0E3F8A1
S11368E0002803D100F089F800200EE02000C0B297
S11368F000F006F900F0D7F82800C0B200F000F963
S113690000F0D1F800F079F8012032BD70B5040030
S11369100D00160000F03CF8002801D1002036E0FC
S1136920422000F0EDF800F0BEF8002803D100F09A
S113693064F800202BE02000C0B200F0E1F800F081
S1136940B2F800F05AF800F023F8002801D1002032
S11369501DE0432000F0D4F800F0A5F8002807D18A
S113696000F04BF8002012E000F061F86D1C761E78
S1136970B6B2002E08D000F0ECF82870B6B2012EA2
S1136980F2D100F072F8F1E700F037F8012070BDA1
S113699080B501208A49086001208A4908604FF4C3
S11369A0487000F015F9002087490860874800689E
S11369B0002804D101208449086000201CE0012043
S11369C08149086000207E4908604FF4487000F057
S11369D0FFF800207C4908607C480068002804D047
S11369E0012079490860002006E00120764908600A
S11369F0002073490860012002BD80B50020714960
S1136A00086000206E4908604FF4487000F0E0F818
S1136A1001206C4908604FF4487000F0D9F8012057
S1136A20674908604FF4487000F0D2F801BD80B5A2
S1136A300020644908604FF4487000F0C9F8002051
S1136A405F4908604FF4487000F0C2F801205D49C6
S1136A5008604FF4487000F0BBF800205949086002
S1136A604FF4487000F0B4F801BD80B500205549DA
S1136A7008604FF4487000F0ABF8012050490860FA
S1136A804FF4487000F0A4F801204E4908604FF418
S1136A90487000F09DF800204A4908604FF448709F
S1136AA000F096F801BD80B50020464908604FF417
S1136AB0487000F08DF80120414908604FF4487097
S1136AC000F086F801203F49086000203E49086034
S1136AD04FF4487000F07CF83C480068002807D068
S1136AE0012039490860002036490860002006E08A
S1136AF0012035490860002032490860012002BDA8
S1136B0038B5040008250EE000202D490860640013
S1136B104FF4487000F05CF801202A4908604FF4F3
S1136B20487000F055F82800451EC0B200280CD06B
S1136B300020244908604FF4487000F049F820060A
S1136B40E2D501201E490860E1E700201D490860E4
S1136B5031BD38B5082400250120194908604FF4D7
S1136B60487000F035F800201749086014E06D0003
S1136B700020144908604FF4487000F029F80120FF
S1136B80104908604FF4487000F022F80F4800687C
S1136B90002801D055F001052000441EC0B2002891
S1136BA0E5D1012008490860002006490860280052
S1136BB0C0B232BD40F00F40CC02FE434C00FE4355
S1136BC00408FE430008FE43840AFE43040AFE430D
S1136BD000E0401E80B20028FBD170470FB42DE9BD
S1136BE0F84F9DF828400B9D0C9E9DF834709DF83D
S1136BF035809DF836008DF800009DF837909DF89B
S1136C0038A09DF839B00020E4B2062C03DB3E2105
S1136C10A94800F069F9B5F1C04010F1004F03D361
S1136C203F21A54800F060F9002E03D14021A2487D
S1136C3000F05AF9FFB2042F03DB41219E4800F013
S1136C4053F95FFA8AFABAF1040F03DB42219A4836
S1136C5000F04AF95FFA8BFBBBF1040F03DB43211D
S1136C60954800F041F90020E4B20C21934A01FB5D
S1136C7004214860E4B20C20904900FB0410056034
S1136C80FFB2B80110F0C000E4B20C218B4A01FB42
S1136C90042188605FFA88F8B8F1000F0DD0E4B2DF
S1136CA00C20864900FB0410806850F40070E4B2A4
S1136CB00C21824A01FB042188609DF80000002811
S1136CC00DD0E4B20C207D4900FB0410806850F420
S1136CD08070E4B20C21794A01FB04218860E4B29B
S1136CE00C20764900FB041080685FFA89F95FEA9A
S1136CF0892111F47C415FFA8AFA5FEA8A4212F42C
S1136D00402211435FFA8BFB5FEA0B4212F44032DC
S1136D1011430843E4B20C21684A01FB0421886052
S1136D20701E060C300450F00100E4B20C21634ADA
S1136D3001FB04214860E4B2002C04D14FF4A060AC
S1136D405F4908605EE0E4B2012C10D15D48006840
S1136D50000100095B4908605A48006850F08050FF
S1136D60584908604FF4A060574908604AE0E4B20B
S1136D70022C10D15348006830F470205149086047
S1136D805048006850F480304E4908604FF4A060C9
S1136D904E49086036E0E4B2032C10D1494800683B
S1136DA030F47040474908604648006850F4805009
S1136DB0444908604FF4A0604549086022E0E4B209
S1136DC0042C0ED13F48006830F070603D490860E3
S1136DD03C4800683B4908604FF4A0603D490860A6
S1136DE010E0E4B2052C0DD13648006830F4700090
S1136DF03449086033480068324908604FF4A060A1
S1136E0035490860002007E0C0B2344951F8201029
S1136E104FF4A0620A60401CC0B21028F4DB1020BA
S1136E2000220CE036FA02F1C90707D5C0B22B499B
S1136E3051F82010401C4FF4A0630B60521CD2B2D6
S1136E40102AEFDB0020FFB2002F01D1102012E046
S1136E505FFA88F8B8F1000F04D1FFB2102F01D106
S1136E60102008E05FFA88F8B8F1000F03D1FFB2F0
S1136E70012F00D10820C0B200280FD01F2207E044
S1136E80D2B2164951F822104FF4A0630B60521E7F
S1136E90C0B2D0F11F01D2B29142F1DB4FF4A06035
S1136EA00F4908604FF4A0600E4908600120BDE856
S1136EB0F20F5DF814FB00BF9486000000C0004090
S1136EC004C0044060C0004000C0044048B0044016
S1136ED04CB0044044B0044040B004401004FF1FD0
S1136EE04CA004402CB0044080B50A0001000248C4
S1136EF000F065FAFEE700BFC886000010B50C007C
S1136F001168012902D0022904D009E040B2516875
S1136F10884705E0916808709068401C9060FFE71E
S1136F202068401C206010BD30B41C0000230025E4
S1136F300570401C002A19D0096800290AD13021A3
S1136F4001705B1C180030BC7047303511000570AF
S1136F50401C5B1C0029F5D091FBF4F204FB1215D4
S1136F60002DF2D5E94311F13105EFE70968002955
S1136F7008D1302101705B1CE4E73735110005703E
S1136F80401C5B1C0029DDD0B1FBF4F204FB12159C
S1136F900A2DF2D23035F1E7F8B504000D001600E1
S1136FA01F0005E03A0031003020FFF7A7FF641C02
S1136FB0AC42F7DBF1BDF8B504000D0016001F006C
S1136FC005E03A0031002020FFF798FF641CAC4232
S1136FD0F7DBF1BD2DE9F04F8DB0050090460020A0
S1136FE000900C0005E02A0000A91800FFF786FFB6
S1136FF0641C94F90030002B00F0DD81252B12D0A5
S11370000A2B05D02A0000A91800FFF777FF09E032
S11370102A0000A90D20FFF771FF2A0000A90A2009
S1137020FFF76CFFE4E70026002101E056F00106BB
S113703000291CD1641C94F9000020280BD02328BB
S11370400FD02B2804D02D28F0D0302806D00BE008
S113705056F00206ECE756F00406E9E756F0080697
S1137060E6E756F01006E3E7641E0121E0E7002797
S1137070002104E00A2000FB0730B0F130070029AA
S113708009D1641C94F90030180030380928F1D96A
S1137090641E0121F3E7641C94F900002E280CD12E
S11370A00021FFE7002909D1641C94F9000030385D
S11370B00928F7D9641E0121F4E7641E641C94F9BD
S11370C000004C2806D0682802D06C2801D002E0C9
S11370D002E001E000E0641E641C94F90030180032
S11370E0582877D0622800F0D880632800F02A81DD
S11370F0642813D0692811D06E2800F055816F28B8
S113710000F0BE80702800F0D580732800F0238141
S1137110752800F0DC8078285CD064E7D8F800009B
S1137120039018F104080A23012203A904A8FFF715
S1137130FBFE814604A819EB000002900398002886
S113714004D55FF02D0A19F101090FE0B00704D549
S11371505FF02B0A19F1010908E0700704D55FF00C
S1137160200A19F1010901E05FF0000A5FF0000B49
S1137170300711D5BAF1000F04D02A0000A95046F7
S1137180FFF7BCFE5FF0010B2B0000AA3900484654
S1137190FFF702FFB94611E0F0070FD42B0000AA55
S11371A039004846FFF707FFBAF1000F04D02A0060
S11371B000A95046FFF7A2FE5FF0010BBBF1000FE0
S11371C007D1BAF1000F04D02A0000A95046FFF7F6
S11371D095FEA9E0D8F80000019018F104081023E6
S11371E0002201A904A8FFF79FFE814604A819EB19
S11371F0000002905FF0000B300715D5F0060BD5A8
S11372002A0000A93020FFF779FE2A0000A978207F
S1137210FFF774FE5FF0010B2B0000AA390048460B
S1137220FFF7BAFEB94619E0F00717D4F00601D506
S113723019F102092B0000AA39004846FFF7BBFEEA
S1137240F0060BD52A0000A93020FFF757FE2A00CC
S113725000A97820FFF752FE5FF0010BF0060ED56F
S1137260BBF1000F0BD12A0000A93020FFF746FE26
S11372702A0000A97820FFF741FE19F1020953E022
S1137280D8F80000019018F104080823002201A98D
S113729004A8FFF749FE814625E0D8F800000190D4
S11372A018F104080223002201A904A8FFF73CFEF8
S11372B0814618E0D8F80000019018F10408102362
S11372C0002201A904A8FFF72FFE81460BE0D8F89D
S11372D00000019018F104080A23002201A904A85F
S11372E0FFF722FE814604A819EB00000290300744
S11372F007D52B0000AA39004846FFF74DFEB946D2
S113730012E0F00710D42B0000AA39004846FFF71A
S113731052FE09E02A0000A9029890F90000FFF744
S1137320EDFD0298401E0290029890F9000000289A
S1137330F0D1F00705D52B0000AA39004846FFF725
S11373403AFE55E698F9000018F104082A0000A94D
S1137350FFF7D4FD4CE6D8F800A018F10408BAF100
S1137360000F20D0504600F03BF88146F0070ED4C1
S11373702B0000AA39004846FFF71DFE07E02A004B
S113738000A99AF90000FFF7B9FD1AF1010A9AF968
S113739000000028F3D1F00705D52B0000AA39001E
S11373A04846FFF708FE23E6D8F8000018F1040861
S11373B0009901601CE600980DB0BDE8F08F0EB492
S11373C000B584B0012100910449019105AA01008E
S11373D000A8FFF7FFFD04B05DF810FBFD88000076
S11373E00021002802D1002007E0491C0200501CA3
S11373F092F90020002AF8D1080070470FB4F0B5C4
S11374000598069B9DF81C709DF81D500899099AD3
S1137410002B01D14FF41653DFF82044A0423FD192
S11374200024DFF81C643668DFF818C4DCF800C0F8
S11374305CF4806CDFF80CE4CEF800C0FFB2022FDD
S113744006D14FF40077DFF800C4CCF800700FE0E9
S1137450FFB20E2F06D14FF44077DFF8F0C3CCF81B
S1137460007005E04FF44077DFF8E4C3CCF8007017
S1137470EDB2012D05D14FF40075DFF8D8733D60EE
S1137480F4E0EDB20F2D05D14FF44075DFF8C87369
S11374903D60EBE04FF44075DFF8C0733D60E5E01C
S11374A0DFF8BC43A0422CD10124DFF89463366892
S11374B0DFF890C3DCF800C05CF4006CDFF884E310
S11374C0CEF800C0FFB27C2F06D14FF44077DFF82E
S11374D094C3CCF8007005E04FF44077DFF888C31C
S11374E0CCF80070EDB27D2D05D14FF44075DFF876
S11374F07C733D60BAE04FF44075DFF874733D600F
S1137500B4E0DFF870432668DFF86C43A04213D17F
S11375100224DFF830532D6855F48055DFF82473C6
S11375203D604FF44075DFF854733D604FF440758F
S1137530DFF84C733D6099E0DFF84843A0423CD14A
S11375400324DFF800C3DCF800C05CF4005CDFF85F
S1137550F4E2CEF800C0FFB2802F06D14FF440779A
S1137560DFF824C3CCF800700FE0FFB22B2F06D154
S11375704FF44077DFF814C3CCF8007005E04FF403
S11375804077DFF80CC3CCF80070EDB2812D05D143
S11375904FF44075DFF8FC723D6067E0EDB22A2DD0
S11375A005D14FF44075DFF8F0723D605EE04FF4B2
S11375B04075DFF8E8723D6058E0DFF8E442A0422D
S11375C029D10424DFF8DCC2DCF800C05CF4806C50
S11375D0DFF8D0E2CEF800C0FFB2942F06D14FF40A
S11375E04077DFF8C4C2CCF8007005E04FF4407770
S11375F0DFF8B8C2CCF80070EDB2952D05D14FF488
S11376004075DFF8AC723D6030E04FF44075DFF850
S1137610A4723D602AE00524DFF89C02DFF884C2EE
S1137620DCF800C05CF4006CDFF878E2CEF800C04F
S1137630FFB2652F06D14FF44077DFF880C2CCF853
S1137640007005E04FF44077DFF874C2CCF80070A6
S1137650EDB2642D05D14FF44075DFF868723D60DA
S113766004E04FF44075DFF860723D60C57815F0B2
S1137670F305C570002585701D01B6FBF5F5077887
S113768017F0E007ADB25FEA152C1CF01F0C5CEAA2
S113769007070770457076011B01B6FBF3F3ADB223
S11376A0B3EB4513857A15F0E00713F01F033B4352
S11376B083729DF81E30012B0BD10B00002B08D0D8
S11376C0C37853F02003C370E4B2804B43F8241012
S11376D003E0C17811F0DF01C1709DF81F1001298A
S11376E00BD11100002908D0C17851F08001C1707C
S11376F0E4B2774941F8242003E0C17811F07F0116
S1137700C170C17851F00C01C170F0BC5DF814FB7C
S113771002791206FCD5C171704780B56D480078B6
S1137720800606D56C480078800602D56748006854
S1137730804768480078000606D567480078000648
S113774002D563480068804701BD80B5634800786E
S1137750800606D562480078800602D55B484068FA
S113776080475E480078000606D55D48007800062C
S113777002D557484068804701BD80B55948007814
S1137780800606D558480078800602D54F488068A0
S1137790804754480078000606D553480078000610
S11377A002D54B488068804701BD80B54F480078BA
S11377B0800606D54E480078800602D54348C06846
S11377C080474A480078000606D5494800780006F4
S11377D002D53F48C068804701BD80B54548007860
S11377E0800606D544480078800602D537480069EB
S11377F0804740480078000606D53F4800780006D8
S113780002D533480069804701BD80B53B48007804
S1137810800606D53A480078800602D52B48406990
S1137820804736480078000606D5354800780006BB
S113783002D527484069804701BD000000A00640EA
S11378409004FF1F348004400890044038900440A2
S113785044A00440049004403C90044040A00440F0
S113786000B0064000D0044010B0044004D00440EE
S11378700CB004409404FF1F00C006400CC0044038
S113788008C0044000D0064010D004402CA004409E
S113789044B0044014D0044028A0044040B0044044
S11378A000A00E402880044060D004403CB0044056
S11378B064D0044038B0044000B00E4024C00440FA
S11378C020D0044020C0044024D004408807FF1F77
S11378D0A007FF1F04A0064003A0064004B0064012
S11378E003B0064004C0064003C0064004D006406E
S11378F003D0064004A00E4003A00E4004B00E4086
S113790003B00E4080B582480068002809D57D4840
S1137910006880477E48006850F000407C49086059
S113792044E07B480068C00009D576484068804739
S11379307748006850F080507549086036E0744814
S11379400068000109D56F48806880477048006866
S113795050F000606E49086028E06D4800688001BE
S113796009D56848006980476948006850F000708C
S1137970674908601AE066480068000309D5614851
S1137980C06880476248006850F40020604908607D
S11379900CE05F480068800308D55A484069804776
S11379A05B48006850F400305949086001BD80B557
S11379B058480068002809D553480068804755484E
S11379C0006850F000405349086044E051480068A2
S11379D0C00009D54C48406880474E48006850F0C4
S11379E080504C49086036E04A480068000109D5D7
S11379F04548806880474748006850F00060454922
S1137A00086028E043480068800109D53E480069C1
S1137A1080474048006850F000703E4908601AE012
S1137A203C480068000309D53748C0688047394896
S1137A30006850F40020374908600CE035480068BD
S1137A40800308D53048406980473248006850F4C4
S1137A5000303049086001BD80B52F480068002817
S1137A6009D52A48006880472B48006850F0004038
S1137A702949086044E028480068C00009D5234823
S1137A80406880472448006850F0805022490860CC
S1137A9036E021480068000109D51C488068804709
S1137AA01D48006850F000601B49086028E01A482F
S1137AB00068800109D515480069804716480068A8
S1137AC050F00070144908601AE01348006800037D
S1137AD009D50E48C06880470F48006850F400205C
S1137AE00D4908600CE00C480068800308D507487D
S1137AF0406980470848006850F40030064908602F
S1137B0001BD00003807FF1F5007FF1F6807FF1F54
S1137B102CC002402CD002402CC00A40C9B22029FB
S1137B2006DA026B012313FA01F11143016306E043
S1137B30C26A0123203913FA01F11143C16270476B
S1137B40C9B2202904DA006BC84010F0010004E037
S1137B50C06A2039C84010F00100C0B2704738B57F
S1137B6005000C002100C9B22800FFF7E9FF002836
S1137B7021D02100C9B22800FFF7D0FF5748854221
S1137B800BD1E4B2574850F82400002813D0E4B2D3
S1137B90544850F8240080470DE0514885420AD1EA
S1137BA0E4B2514850F82400002804D0E4B24E480E
S1137BB050F82400804731BD38B504000D00290079
S1137BC0C9B22000FFF7BCFF012812D14348844208
S1137BD010D1EDB2434850F82500002804D0EDB28E
S1137BE0404850F8250080472900C9B22000FFF71B
S1137BF095FF31BD3A4884420BD1EDB23A4850F872
S1137C0025000028F0D0EDB2374850F82500804711
S1137C10EAE7EEE710B500240FE0E4B2334810EBD6
S1137C200410007A012807D12100C9B2E4B220016E
S1137C302E4A8058FFF7C0FF641CE4B2102C15DAFA
S1137C40E4B22001294940580028F5D0E4B227487D
S1137C5010EB0410007A0228DFD12100C9B2E4B28B
S1137C602001224A8058FFF77AFFE5E710BD80B56E
S1137C70FFF7D0FF01BD04201D49086070471C4870
S1137C800068810701D51A49086070475FF4003025
S1137C901749086070475FF48030154908607047E1
S1137CA070477047704780B5FFF7B4FF01BD0420EB
S1137CB01049086070470F480068810701D50D49D5
S1137CC0086070475FF400300A49086070475FF449
S1137CD080300849086070470000000000400240FE
S1137CE000400A400006FF1F4006FF1F0005FF1F5B
S1137CF02040024020400A4070477047704700000F
S1137D00DFF800F0A504FF1FF8B5C0B2C92801D3FD
S1137D10C820FFE7C0B2010030290ED032291BD0A1
S1137D2060291CD064291DD078291ED096291FD023
S1137D30B42920D0C82921D023E018270025060023
S1137D400024C0B23221B0FBF1F1491E0A00D2B2C4
S1137D50FF2A1AD1002120E018270125EFE7182770
S1137D601825ECE718271A25E9E713271825E6E76D
S1137D700F271825E3E70E271E25E0E70C271C250F
S1137D80DDE76020FFF7C0FF80E0C0B2C9B24A1C43
S1137D9090FBF2F2332A00D3491CC0B23222B0FB6A
S1137DA0F2F2521E1300DBB2FF2B01D1002207E0D6
S1137DB0C0B2D2B2531C90FBF3F3332B00D3521C4A
S1137DC0C0B21923B0FBF3F35B1E9C465FFA8CFC34
S1137DD0BCF1FF0F01D1002308E0C0B2DBB213F104
S1137DE0010C90FBFCF01A2800D35B1C0020DFF888
S1137DF0A0C08CF800002748006850F08050DFF8DD
S1137E0094C0CCF800002448007850F08000DFF8DB
S1137E1088C08CF800009820DFF880C08CF800003F
S1137E201F480078C006FBD41D480078C0F38100C9
S1137E30C0B20228F8D117F01F001A4F3870002082
S1137E40194F3870DBB2D2B2C9B2E4B22000FFF7E6
S1137E5057FF15F01F0050F04000134908701048F8
S1137E6000788006FBD50E4800784006FBD50B4809
S1137E70007810F03F000949087009480078C0F301
S1137E808100C0B20328F8D13000C0B2F2BD00BFF7
S1137E90014006403480044008C0074000400640CA
S1137EA006400640044006400540064000B587B041
S1137EB04D48006850F478504B4908604CF220500B
S1137EC04A4908804DF62810484908804FF4E97063
S1137ED04749088000F0B8F86420FFF715FF00F068
S1137EE05FF84448006844490860434800684349CF
S1137EF00968C1F30361491CB0FBF1F04049086013
S1137F003D4800683D490968C1F30351491CB0FB71
S1137F10F1F03C4908603848006838490968C1F301
S1137F200341491CB0FBF1F0374908603748019020
S1137F305FF4E130029001A984B068461422FEF790
S1137F4021FA0FBCFFF75AFA26A0FFF738FA304897
S1137F50FFF735FA2F493048FFF731FA284800680F
S1137F602E49B0FBF1F2244800682C49B0FBF1F132
S1137F702B48FFF724FA244800682849B0FBF1F2A3
S1137F80204800682549B0FBF1F12648FFF717FAAD
S1137F902548FFF714FA2548FFF711FA07B000BD8A
S1137FA023480078C0B210F01F001830214948431C
S1137FB021490978C9B211F01F01491CB0FBF1F045
S1137FC00C490860704780B51C48FFF7F8F901BDFB
S1137FD080B51B480078C0B2B0F110011948FFF712
S1137FE0EEF901BD0D0A0000388004400E20054062
S1137FF000200540A004FF1F9004FF1F448004409C
S11380009404FF1F9C04FF1F9804FF1F00B00E4040
S11380100C8600002C8900005887000040420F00A5
S1138020E08700000488000050860000C48500003A
S11380300540064080F0FA02044006405C880000D7
S113804004ED00E0888700001C481D4988420BD0DD
S1138050002006E01A4951F82010184A42F820106E
S1138060401CB0F5826FF5D31448164908601649D0
S1138070164A1748801A03E013780B70521C491CE7
S11380800300581E002BF7D112491348401A02E08E
S113809000220A70491C0200501E002AF8D10F4920
S11380A00F4A1048801A03E013780B70521C491CC5
S11380B00300581E002BF7D1704700BF0000FF1FBC
S11380C00050000008ED00E01004FF1FA88200002B
S11380D03C830000F004FF1F54CBFF1FA404FF1FC8
S11380E078850000C485000080B538480078C00752
S11380F00CD537480078C00708D531480068804758
S11381003248007810F0FE00304908702F4800789B
S113811080070CD52E480078800708D529480068C8
S113812080472A48007810F0FD0028490870274845
S1138130007840070CD526480078400708D5224827
S1138140006880472148007810F0FB001F49087040
S113815001BD80B51F480078C0070CD51E480078C3
S1138160C00708D51648406880471A48007810F0C0
S1138170FE00184908701748007880070CD5164887
S11381800078800708D50F48406880471148007878
S113819010F0FD000F4908700E48007840070CD518
S11381A00D480078400708D50748406880470948CB
S11381B0007810F0FB000749087001BD00000000C2
S11381C08006FF1F8806FF1F9006FF1F20C00C407B
S11381D021C00C4020D00C4021D00C4080B52E484A
S11381E00078800726D52B48006880472B48007804
S11381F0000705D52948007850F008002749087081
S113820026480078800705D52448007850F00200FD
S11382102249087020480078C00605D51E48007819
S113822050F010001C4908701B48007850F0020000
S11382301949087001BD80B519480078800726D512
S113824014484068804717480078000705D515484A
S1138250007850F00800134908701248007880072D
S113826005D51048007850F002000E4908700C48FB
S11382700078C00605D50A48007850F01000084977
S113828008700748007850F002000549087001BDE5
S1138290000000000807FF1F036006400860064056
S11382A0037006400870064018C0044014C004401F
S11382B010C004400CC0044008C0044028B004406E
S11382C024B0044020B004401CB0044018B0044062
S11382D014B0044010B0044008B0044004B004409A
S11382E000B0044048A0044044A0044040A004401E
S11382F02CA0044028A0044024A0044020A0044052
S11383001CA0044018A004403CB0044038B0044011
S113831034B0044030B004405CA0044058A0044091
S113832054A0044050A00440FFFFFFFFFFFFFFFFE5
S1138330FFFFFFFFFFFFFFFF00E1F50580B5DFF85A
S11383407800006850F00070DFF86C100860DFF807
S113835064000068002803D0DFF8580000688047F4
S113836001BD80B5DFF85000006850F00060DFF810
S113837048100860DFF83C004068002803D0DFF8AC
S113838034004068804701BD80B5DFF8280080686C
S1138390002803D0DFF81C008068804701BD80B549
S11383A0DFF81000C068002803D0DFF80800C068B8
S11383B0804701BDD806FF1F04000C4080B51A4851
S11383C0006840060CD518480068800608D5174890
S11383D0006880471448006830F040001249086083
S11383E014480068C0070CD50F480068800308D5FE
S11383F00F48006880470F48006850F001000D499D
S113840008600D48006880070CD5074800688003A1
S113841008D50748006880470748006850F0020004
S11384200549086001BD0000006003401407FF1FF8
S11384301807FF1F146003403C60034080B51748D1
S1138440006848F21001084217D015480068002857
S113845013D01348006880471048006850F48040E7
S11384600E4908600D48006850F400400B4908604C
S11384704FF6FF700B4908600DE00A4800680028B9
S113848009D007484068002805D00548406880475F
S113849005480449086001BD000000000050044084
S11384A08007FF1F0C5004400000FFFF80B51548F3
S11384B0006880471448006850F0010012490860C1
S11384C001BD80B50F48406880471048006850F0EF
S11384D001000E49086001BD80B50A4880688047E4
S11384E00B48006850F001000949086001BD80B5DF
S11384F00448C06880470748006850F001000549F7
S1138500086001BD1C07FF1F0C7103401C71034070
S11385102C7103403C71034080B516480068C007C5
S113852009D51348006880471248006850F00100DC
S1138530104908601AE00F480068800709D50C4804
S1138540406880470B48006850F002000949086001
S11385500CE008480068400708D505488068804753
S11385600448006850F004000249086001BD00009E
S11385702C07FF1F14D0034070B4104C24680F4D17
S11385802D6855F47F050D4E3560090611F07061B4
S113859051EA0070110511F470010843190411F433
S11385A07021084306490860002000E0401CC0B266
S11385B09842FBD30148046070BC704700F001404E
S11385C0448004402A2A2A2A2A2A2A2A2A2A2A2AA7
S11385D02A2A2A2A2A2A2A2A2A2A2A2A2A2A2A2AF7
S11385E02A2A2A2A2A2A2A2A2A2A2A2A2A2A2A2AE7
S11385F02A2A2A2A2A2A2A2A2A2A2A2A2A2A2A2AD7
S11386002A2A2A2A2A2A2A2A0D0A00002A2A2A2A57
S11386102A2A2A2A2A2A2A20BBF9D3DAC0ADC6D5A7
S1138620C0BCB5C24B3630B5D7B2E3BFE2206874E4
S113863074703A2F2F7777772E6C706C642E636E7C
S1138640202A2A2A2A2A2A2A2A2A2A2A0D0A000021
S1138650CFB5CDB3C6F4B6AFCDEAB1CFA3ACC8F4B1
S1138660D2AABDFBD3C3B5F7CAD4CAE4B3F6C7EBE9
S1138670B6A8D2E55052494E545F4F4E5F4F46461E
S1138680CEAA31286B36305F636172642E68290D7F
S11386900A000000443A5C4C504C445F4F534B6911
S11386A06E657469735F56337777775C6C69625C67
S11386B04C504C445C48575C48575F464C455842C4
S11386C055532E6300000000B6CFD1D4CAA7B0DC46
S11386D0B7A2C9FAD3DA20257320B4FAC2EBB5C421
S11386E0B5DA20256420D0D0A3ACC7EBBCECB2E94A
S11386F0B2CECAFDA1A30A00443A5C4C504C445F7C
S11387004F534B696E657469735F56337777775C43
S11387106C69625C4C504C445C48575C48575F44FD
S11387204D412E6300000000443A5C4C504C445FC1
S11387304F534B696E657469735F56337777775C13
S11387406C69625C4C504C445C48575C48575F47CA
S113875050494F2E630000004F534B696E65746996
S113876073B9CCBCFEBFE2B0E6B1BE3A2573096D65
S113877061696C3A737570706F7274406C706C647C
S11387802E636E0D0A0000000D0A2A2A2A2ABDF85B
S1138790C8EBCEB4B6A8D2E5D6D0B6CF2C496E7409
S11387A0657272757074204E756D626572202564F1
S11387B02A2A2A2A2A0D0A0010B5074979441831B1
S11387C0064C7C44163404E00A68081D5118884796
S11387D00146A142F8D110BD7400000080000000E1
S11387E0CFB5CDB3C4DABACBCAB1D6D33A25644D2A
S11387F0487A09D7DCCFDFCAB1D6D33A25644D48CD
S11388007A0D0A00466C6578427573CAB1D6D33ABC
S113881025644D487A09466C617368CAB1D6D33A67
S113882025644D487A0D0A0080B5074800688047E2
S113883001BD80B504484068804701BD80B5024849
S11388408068804701BD0000E806FF1F8FDBFFFF43
S113885064C60000F004FF1F000000000D0A2A2A6D
S11388602A2AC4DABACBB7A2C9FAD3B2BCFEB4ED91
S1138870CEF32A2A2A2A2A0D0A00000080B50548C8
S1138880006850F08000034908600348006880478E
S113889001BD0000000004401007FF1F80B505481B
S11388A00068804701BD80B502484068804701BD2B
S11388B000000000F804FF1F00F00BF8002801D0AE
S11388C0FFF77AFF0020C046C046FCF7B5FD00F074
S11388D002F80120704700F001B80000074638464E
S11388E000F002F8FBE7000080B5C046C046024A2B
S11388F011001820ABBEFBE72600020080B5010082
S113890049B20248FEF704FF01BD000000B00E406A
S113891080B502480068804701BD0000B807FF1F0A
S1138920C046C046C046C046FFF7C6FF332E3033AC
S1078930000000003F
S903892152
