S01700004C504C445F4F56373637305F4B36302E73726563F9
S11300004851FF1F1104000021040000BD8D0200AF
S1130010210400002104000021040000000000006D
S113002000000000000000000000000021040000A7
S1130030210400000000000021040000210400004D
S1130040198A02002F8A0200458A02005B8A020094
S1130050718A0200878A02009D8A0200B38A020024
S1130060C98A0200DF8A0200F58A02000B8B0200B3
S1130070218B0200378B02004D8B0200638B020040
S113008021040000210400002104000021040000D8
S113009021040000210400002104000021040000C8
S11300A0558F0200AF8F0200718402001B8502008D
S11300B0C5850200DB870200E3870200EB870200AC
S11300C0F9870200038802000D8802000F880200ED
S11300D011880200138802001B8802002388020092
S11300E0318802003B8802006588020067880200AC
S11300F0698802004F710200210400007F71020030
S113010021040000AF71020021040000DF7102002D
S1130110210400000F720200210400003F7202005B
S113012021040000A5940200AF9402002104000001
S113013021040000210400000D940200199402001F
S113014023940200210400003993020000000000FF
S113015061920200779202008D920200A392020043
S1130160E1910200C595020021040000AD91020056
S11301708791020061910200C391020021040000F2
S113018021040000618E0200CB8E0200CD92020099
S1130190210400004194020021040000F7660200DB
S11301A0096702001B6702002D6702003F67020017
S11301B021040000210400002104000021040000A7
S11301C02104000021040000210400002104000097
S11301D02104000021040000210400002104000087
S11301E0BF8D0200BF8D0200BF8D0200BF8D0200D3
S1130400FFFFFFFFFFFFFFFFFFFFFFFFFEFFFFFFF9
S11304100148804701480047C18C02003190020026
S113042028F0CDBC9E3C9E3B9E3CA65CA65C9E3CBC
S1130430A63CA63CA63C9E3CA65CA65C9E3CA65C58
S1130440A65CA65CA65CA65C9E3CA65CA65C9E3CE8
S11304509E3C9E3C9E3CA65CA63CA63CA63C9E3C88
S1130460A65CA65CA65CA63CA63CA63CA63CA63C18
S1130470A63CA65CA65CA65CA65CA65CA65CA65C88
S1130480A63CA65BA65CA65CA65CA65CA65CA65C79
S1130490A63CA65CA65CA65CA65BA65BA65CA65C6A
S11304A0A63CA65CA65CA65CA65CA65CA65CA65C58
S11304B0A63CA65CA65CA65CA63CA65CA65CA65C68
S11304C0A65CA65CA65CA65CA65CA65CA65CA65C18
S11304D0A65CA63CA65CA65CA65CA65CA65CA65C28
S11304E0A65CA65CA65CA65CA65CA65CA65CA65CF8
S11304F0A65CA65CA65CA65CA65CA65CA65CA65CE8
S1130500A65CA65CA65CA65CA65CA65CA65CA65CD7
S1130510A65CA65CA65CA65CA65CA65CA65CA65CC7
S1130520A65CA65CA65CA65CA65CA65CA65CA65CB7
S1130530A65CA65CA65CA65CA65CA65CA65CA65CA7
S1130540A65CA65CA65CA65CA65CA65CA65CA65C97
S1130550A65CA65CA65CA65CA67CA65CA65CA65C67
S1130560A65CA65CA65CA65CA67CA67CA65CA65C37
S1130570A65CA65CA65CA65CA67CA65CA67CA65C27
S1130580A65CA65CA65CA65CA65CA65CA65CA65C57
S1130590A67CA65CA65BA65CA65CA65CA65CA65C28
S11305A0A65CA65CA65CA65CA65CA65CA65CA65C37
S11305B0A65CA65CA65CA65CA65CA65CA65CA65C27
S11305C0A65CA65CA65CA65CA65CA65CA65CA65C17
S11305D0A65BA65CA65CA65CA65CA65CA65CA65C08
S11305E0A65CA65CA65CA65CA65CA65CA65CA65CF7
S11305F0A65CA65CA65CA65CA65CA65CA65CA65CE7
S1130600A65CA65CA65CA65CA65CA65CA65CA65CD6
S1130610A65CA65CA65CA65CA65CA65CA65CA65CC6
S1130620A65CA65CA65CA65CA65CA65CA65CA65CB6
S1130630A65CA65CA65CA65CA65CA65CA65CA65CA6
S1130640A65CA65CA65CA65CA65CA65CA65CA65C96
S1130650A65CA65CA65BA65CA65CA65CA65CA65C87
S1130660A65CA65CA65CA65CA65CA65CA65CA65C76
S1130670A65CA65CA65CA63BA65CA65CA65CA65C87
S1130680A65CA65CA65CA65CA65CA65CA65CA65C56
S1130690A65CA63CA65CA65CA65CA65CA65BA65C67
S11306A0A65CA63C9E3C9E3C9E3C9E3C9E3C9E3C46
S11306B0A63CA63CA63C9E3C9E3CA65CA65CA63CF6
S11306C09E3CA65C9E5C9E5C9E5C9E5CA65CA63C7E
S11306D0A63CA63CA65CA65CA65CA63CA63CA65C86
S11306E0A65CA65CA65CA63CA63CA63CA63CA65C76
S11306F0A65CA65CA65CA65CA63CA63CA65CA65C26
S1130700A65CA63BA65BA65CA65CA65CA65CA65BF8
S1130710A65BA65BA65CA65CA65CA65CA65CA65CC7
S1130720A65CA65CA65CA65CA65CA65CA65CA65CB5
S1130730A65CA65CA65CA65CA65CA65CA65CA65CA5
S1130740A65CA65CA65CA65CA65CA65CA65CA65C95
S1130750A65CA65CA65CA65CA65CA65CA65CA65C85
S1130760A65CA65CA65CA65CA65CA65CA65CA65C75
S1130770A65CA65CA65CA65CA65CA65CA65CA65C65
S1130780A65CA65CA65CA65CA65CA65CA65CA65C55
S1130790A65CA65CA65CA65CA65CA67CA65CA65C25
S11307A0A65CA65CA65CA65CA65CA65CA65CA65C35
S11307B0A65CA65CA65CA65CA65CA65CA65CA65C25
S11307C0A65CA65CA65CA65CA65CA65CA65CA65C15
S11307D0A65CA65CA65CA65CA65CA65CA65CA65C05
S11307E0A65CA65CA65CA65CA65CA65CA65CA65CF5
S11307F0A65CA65CA67CA65CA65CA65CA65CA65CC5
S1130800A65CA65CA65CA65CA65CA67CA65CA65CB4
S1130810A65CA67CA65CA65CA65CA65CA65CA65CA4
S1130820A65CA65CA65BA65CA65CA65CA65CA65CB5
S1130830A65CA65CA65CA65CA65CA65CA65CA65CA4
S1130840A65CA65CA65CA65CA65CA65CA63CA65CB4
S1130850A65CA65CA65CA65CA65CA65CA65CA65C84
S1130860A65CA65CA65CA65CA65CA65CA65CA65C74
S1130870A65CA65CA65CA65CA65CA65CA65CA65C64
S1130880A65CA65CA65CA65CA65CA65CA65CA65C54
S1130890A65CA65CA67CA65CA65CA65CA65CA65C24
S11308A0A65CA65CA65CA65CA65CA65CA65CA65C34
S11308B0A65CA65CA65CA65CA65CA65CA65CA65C24
S11308C0A65CA65CA65CA65CA65CA65CA65CA65C14
S11308D0A65CA65CA65CA65CA65CA65CA65CA65C04
S11308E0A65CA65CA65CA65CA65CA63CA65CA65C14
S11308F0A65CA65CA65CA65CA65CA65CA65BA63C05
S1130900A65CA65CA65CA65CA65CA65CA65CA65CD3
S1130910A65CA65CA65CA63BA65CA65CA65CA63B05
S1130920A65BA65C9E3C9E3C9E3C9E3CA65C9E3C7C
S1130930A63CA63CA63C9E3C9E3CA65CA65CA65C53
S1130940A65C9E3CA65C9E3CA65CA65CA65CA63C03
S1130950A63CA63CA65CA65C9E3C9E3C9E3C9E3C63
S1130960A65CA65CA65CA63CA63CA65CA63CA63CF3
S1130970A65CA63CA63CA63CA63CA65BA65BA63C05
S1130980A63CA65CA65BA65CA63CA65CA65BA65B96
S1130990A65CA65BA65CA65CA65CA65CA65CA65C44
S11309A0A65CA65CA65CA65CA65CA65CA65CA65C33
S11309B0A65CA65CA65CA65CA65CA65CA65CA65C23
S11309C0A65CA65CA63CA65CA65CA65CA65CA65C33
S11309D0A65CA65CA65CA65CA65CA65CA65CA65C03
S11309E0A65CA65CA65CA65CA65CA65CA65CA65CF3
S11309F0A65CA65CA65CA65CA65CA65CA65CA65CE3
S1130A00A65CA65CA65CA65CA65CA65CA65CA65CD2
S1130A10A65CA65CA65CA65CA65CA67CA65CA65CA2
S1130A20A65CA65CA65CA65CA65CA65CA65CA65CB2
S1130A30A65CA65CA65CA65CA65CA65CA65CA65CA2
S1130A40A65CA65CA65CA65CA65CA65CA65CA65C92
S1130A50A65CA65CA65CA67CA65CA65CA65CA65C62
S1130A60A67CA65CA65CA65CA65CA65CA65CA65C52
S1130A70A65CA65CA67CA65CA65CA65CA65CA65C42
S1130A80A65CA65CA65CA65CA65CA65CA65CA65C52
S1130A90A65CA65CA65CA65CA65CA65CA65CA65C42
S1130AA0A65CA65CA65CA65CA65CA65CA65CA65C32
S1130AB0A65CA65CA65CA65CA65CA65CA65CA65C22
S1130AC0A65CA65CA65CA65CA65CA65CA65CA67CF2
S1130AD0A65CA65CA65CA65CA65CA65CA65CA65C02
S1130AE0A65CA65BA65CA65CA65CA65CA65CA65CF3
S1130AF0A65CA65CA65CA65CA65CA65CA67CA65CC2
S1130B00A65BA65CA65CA65CA65CA65CA67CA65CB2
S1130B10A65CA65BA65CA65CA65CA65CA65CA65CC2
S1130B20A67CA65CA65CA65CA65CA65CA65CA65C91
S1130B30A65CA65CA65CA65CA65CA65CA65CA65CA1
S1130B40A65CA65CA65CA65CA65CA65CA65CA65C91
S1130B50A65CA65CA65CA65CA65CA65CA65CA65C81
S1130B60A65CA65CA65CA65CA65CA65CA65CA65C71
S1130B70A65CA65CA65CA65CA65CA65CA65CA65C61
S1130B80A65BA65CA65CA65CA65CA65CA65CA65C52
S1130B90A65BA65CA65CA65CA65CA65CA65CA65C42
S1130BA0A65CA65C9E3BA65CA65CA65CA65C9E3C82
S1130BB09E3CA63C9E3C9E3C9E3C9E3CA65CA65C09
S1130BC0A65CA65CA63CA63CA63CA63CA63CA65CB1
S1130BD0A65CA65CA65CA65CA65C9E3C9E3C9E3C79
S1130BE09E3CA65CA63CA63CA63CA65C9E3C9E3CC9
S1130BF0A63CA63CA65CA65CA65CA65CA65CA65C21
S1130C00A65CA65CA65CA65BA65CA65CA65CA65CD1
S1130C10A65CA65CA65CA65CA65CA65CA65CA65CC0
S1130C20A65CA65CA65CA65CA65CA65CA65BA65CB1
S1130C30A65CA65CA65CA65CA65CA65CA65CA65CA0
S1130C40A65CA65CA65CA65CA65CA65CA65CA65C90
S1130C50A65CA65CA65CA65CA65CA65CA65CA65C80
S1130C60A65CA65CA65BA65CA65CA65CA65CA65C71
S1130C70A63CA65CA65CA65CA65CA65CA65CA65C80
S1130C80A65CA65CA65CA65CA65CA65CA65CA65C50
S1130C90A65CA65CA65CA65CA65CA65CA65CA65C40
S1130CA0A65BA65CA65CA65CA65CA65CA65CA65C31
S1130CB0A65CA65CA65CA65CA65CA65CA65CA65C20
S1130CC0A65CA65CA65CA65CA65CA65CA65CA65C10
S1130CD0A65CA65CA65CA67CA65CA65CA65CA65CE0
S1130CE0A65CA65CA65CA65CA65CA65CA65CA65CF0
S1130CF0A65CA67CA65CA65CA67CA67CA67CA65C60
S1130D00A65CA67CA65CA65CA65CA65CA65CA65CAF
S1130D10A65CA67CA65CA65CA65CA65CA65CA65C9F
S1130D20A65CA65CA67CA65CA65CA65CA65CA65C8F
S1130D30A65BA65CA65CA65CA65CA65CA65CA65CA0
S1130D40A65CA65CA65CA65CA65CA65CA65CA65C8F
S1130D50A65CA65CA65CA65CA65CA65CA65CA65C7F
S1130D60A65CA65CA65CA65CA65CA65CA65CA65C6F
S1130D70A65CA65CA65CA65CA65CA65CA65CA65C5F
S1130D80A65CA65CA65CA65CA65CA65CA65CA65C4F
S1130D90A67CA65CA65BA67CA65CA65CA65CA65C00
S1130DA0A65CA65CA65CA65CA65CA65CA65CA65C2F
S1130DB0A65CA65CA65CA65CA65CA65CA65CA65C1F
S1130DC0A65CA65CA65CA65CA65CA65CA65CA65C0F
S1130DD0A65CA65CA65CA65CA65CA65CA65CA65CFF
S1130DE0A65CA65CA65CA65CA65CA65CA65CA65CEF
S1130DF0A65CA65CA65CA65CA65CA65CA65CA65CDF
S1130E00A65CA65CA65CA65CA65CA65CA65CA65CCE
S1130E10A65CA65CA65CA65CA65CA65CA65CA65CBE
S1130E20A65CA63B9E3CA65CA63CA65CA65CA65C17
S1130E30A65C9E3C9E3C9E3C9E3CA65CA65CA65C3E
S1130E40A65CA65CA63CA65CA63CA63CA63CA65C0E
S1130E50A65CA65CA65CA65CA65CA65CA65CA65C7E
S1130E60A65CA65CA65CA65CA65CA65CA65CA65C6E
S1130E70A63CA63CA65CA65CA65CA65CA65CA65C9E
S1130E80A65CA65CA65CA65CA65CA65CA65CA65C4E
S1130E90A65BA63CA65CA65CA65CA65CA63CA65C7F
S1130EA0A65CA65CA65CA65CA65CA65CA65CA65C2E
S1130EB0A65CA65CA65CA65CA65CA65CA65CA65C1E
S1130EC0A65CA65CA65CA65CA65CA65CA65CA65C0E
S1130ED0A65CA65CA65CA65CA65CA65CA65CA65CFE
S1130EE0A65CA65CA65CA65CA65CA65CA65CA65CEE
S1130EF0A65CA65CA65CA65CA65CA65CA65CA65CDE
S1130F00A65CA65CA65CA65CA65CA65CA65CA65CCD
S1130F10A65CA65CA65CA65CA65CA65CA65CA65CBD
S1130F20A65CA65CA67CA65CA65CA65CA65CA65C8D
S1130F30A65CA65CA65CA65CA65CA65CA65CA65C9D
S1130F40A67CA65CA65CA65CA65CA65CA65CA65C6D
S1130F50A65CA65CA65CA65CA65CA65CA65CA65C7D
S1130F60A65CA65CA65CA65CA65CA65CA67CA65C4D
S1130F70A65CA65CA65CA65CA65CA65CA65CA67C3D
S1130F80A67CA65CA65CA65CA65CA67CA65CA65C0D
S1130F90A65CA67CA65CA65CA65CA65CA65CA65C1D
S1130FA0A65CA65CA67CA65CA65CA65CA65CA65C0D
S1130FB0A65CA65CA65CA65CA65CA65CA65CA65C1D
S1130FC0A65CA65CA65CA65CA65CA65CA65CA65C0D
S1130FD0A65CA65CA65CA65CA65CA65CA65CA65CFD
S1130FE0A65CA65CA65CA65CA65CA65CA65CA65CED
S1130FF0A65CA65CA65CA65CA65CA65CA65CA67CBD
S1131000A67CA65CA65CA65CA65CA65CA65CA65CAC
S1131010A67CA65CA65CA65CA65CA65CA65CA65C9C
S1131020A65CA65CA65CA65CA65CA65CA65CA65CAC
S1131030A65CA65CA65CA65CA65CA65CA65CA65C9C
S1131040A65CA65CA65CA65CA65CA65CA65CA65C8C
S1131050A65CA65CA65CA65CA65CA65CA65CA65C7C
S1131060A65CA65CA65CA65CA65CA65CA65CA65C6C
S1131070A65CA65CA65CA65CA65CA65CA65CA65C5C
S1131080A65CA65CA65CA65CA65CA65CA65CA65C4C
S1131090A65CA65BA65CA65CA65CA65CA65CA65C3D
S11310A0A65CA65B9E3CA63CA63CA65C9E3C9E3CE5
S11310B0A65CA65C9E3CA65CA65CA65CA65CA65C44
S11310C0A65CA63C9E3CA65CA65CA65CA65C9E3C7C
S11310D0A65CA65CA65CA65CA65CA65CA65CA65CFC
S11310E0A65CA65CA65CA65CA65CA63CA65CA65C0C
S11310F0A63CA65CA63CA65CA65CA65CA65CA63C3C
S1131100A65CA65CA65CA65CA65CA65CA65CA65CCB
S1131110A65CA65CA65CA65BA65CA65CA65CA65CBC
S1131120A65CA65CA63CA65CA65CA65CA65CA65CCB
S1131130A65CA65CA65CA65CA65CA65CA65CA65C9B
S1131140A65CA65CA65CA65CA65CA65CA65CA65C8B
S1131150A65CA67CA65CA65CA65CA65CA65CA65C5B
S1131160A65CA65CA65CA65CA65CA65CA65CA65C6B
S1131170A65CA67CA65CA65CA65CA67CA65CA65C1B
S1131180A65CA65CA65CA65CA65CA65CA65CA65C4B
S1131190A65CA65CA65CA65CA65CA65CA65CA65C3B
S11311A0A65CA65CA65CA65CA65CA65CA65CA65C2B
S11311B0A65CA65CA65CA65CA65CA65CA65CA65C1B
S11311C0A65CA65CA65CA65CA65CA65CA65CA65C0B
S11311D0A65CA65CA65CA65CA65CA65CA65CA67CDB
S11311E0A65CA65CA65CA65CA65CA67CAE7CAE7C7B
S11311F0A65CA65CA65CA65CA65CA65CA65CA67CBB
S1131200A67CA65BA65CA65CA65CA65CA65CA65CAB
S1131210A67CA65CA65CA65CA65CAE7CA65CA65C72
S1131220A65CA67CA67CA65CA65CA65CA65CA65C6A
S1131230A67CA65CA65CA65CA65CA65CA65CA67C5A
S1131240A65CA65CA65CA65CA65CA65CA65CA65C8A
S1131250A65CA65CA65CA65CA65CA65CA65CA65C7A
S1131260A65CA65CA65CA65CA65CA65CA65CA65C6A
S1131270A65CA65CA65CA65CA65CA65CA65CA67C3A
S1131280A65CA67CA65CA65CA65CA65CA65CA65C2A
S1131290A65CA65CA65CA65CA67CA67CA65CA65CFA
S11312A0A65CA65CA65CA65CA65CA65CA65CA65C2A
S11312B0A65CA65CA65CA65CA65CA65CA65CA65C1A
S11312C0A65CA65CA65CA65CA65CA65CA65CA65C0A
S11312D0A65CA65CA65CA65CA67CA65CA65CA65CDA
S11312E0A65CA65CA65CA65CA65CA65CA65CA65CEA
S11312F0A65CA65CA65CA65CA65CA65BA65CA65CDB
S1131300A65CA65CA65CA65CA65CA65CA65CA65CC9
S1131310A65CA65BA65CA65CA65CA65BA65CA65CBB
S1131320A65BA65CA63CA63CA63CA63C9E3CA65C52
S1131330A65CA65C9E3CA65CA65CA65CA65CA65CC1
S1131340A65CA65C9E5CA65C9E5CA65CA65CA65C99
S1131350A65CA65CA65CA65CA65CA65CA65CA65C79
S1131360A65CA65CA65CA65CA65CA65CA65CA65C69
S1131370A65CA65CA65CA65CA65CA65BA65CA65C5A
S1131380A65CA65BA65CA65CA65CA65CA65CA65C4A
S1131390A65CA65CA65CA65CA65CA65CA65CA65C39
S11313A0A65CA65CA65CA65CA65CA65CA65CA65C29
S11313B0A65CA65CA65CA65CA65CA65CA65CA65C19
S11313C0A65CA65CA65CA65CA65CA65CA65CA65C09
S11313D0A65CA65CA65CA65CA65CA65CA65CA65CF9
S11313E0A65CA65CA65CA65CA65CA65CA65CA67CC9
S11313F0A65CA65CA65CA65CA65CA65CA65CA65CD9
S1131400A65CA67CA65CA65CA65CA65CA65CA65CA8
S1131410A65CA65CA65CA65CA65CA65CA65CA65CB8
S1131420A65CA65CA65CA65CA65CA65CA65CA67C88
S1131430A67CA65BA67CA65CA65CA65CA65CA65C59
S1131440A65CA65CA65CA65CA67CA67CA65CA65C48
S1131450A65CA65CA65CA65CA65CA65CA65CA67C58
S1131460A65CA65CA65CA65CA65CA65CA65CA65C68
S1131470AE7CA65CA65CA65CA65CA65CA65CA67C10
S1131480A67CA65CA65CA67CA67CA67CA65CA65CC8
S1131490A67CA67CA65CA65CA65CAE7CAE7CA65CA8
S11314A0A65CA65CA65CA65CA67CA65CA65CA65C08
S11314B0A65CA65CAE5CA65CA65CA65CA67CA65CF0
S11314C0A65CA65CAE7CA65CA65BA67CA67CA65BA2
S11314D0A65CA67CA67CA65CA65CA65CA65CA65CB8
S11314E0A65CA65BA65CA65CAE7CA65CA65CA65CC1
S11314F0A67CA67CA65CA65CA67CA65CA65CA65C78
S1131500A65CA67CA65CA65CA65CA65CA65CA65CA7
S1131510A65CA67CA65CA65CA65CA67CA65CA65C77
S1131520A65CA65CA65CA65CA65CA65CA65CA65CA7
S1131530A65CA65CA65CA65CA65CA65CA65CA65C97
S1131540A65CA65CA65CA65CA65CA65CA65CA65C87
S1131550A65CA65CA65CA65CA65CA65CA65CA65C77
S1131560A65CA65CA65CA65CA65CA65CA65CA65C67
S1131570A65CA65CA67CA65CA65BA65CA65CA65C38
S1131580A65CA65CA65CA65CA65CA65CA65CA65C47
S1131590A65CA65CA65CA65CA65CA65BA65CA65C38
S11315A0A65CA65CA63CA63CA63CA65CA65C9E3CAF
S11315B0A65CA65CA65CA65CA65CA65CA65CA65C17
S11315C0A63CA63CA65CA63CA63CA63CA63CA65CC7
S11315D0A65CA65CA65CA65CA65CA63CA65CA65C17
S11315E0A65CA65CA65CA65CA65CA65CA65CA65CE7
S11315F0A65CA65CA65CA65CA65CA65CA65CA65CD7
S1131600A65CA65CA65CA65BA65CA65CA65CA65CC7
S1131610A65CA65CA65CA65CA65CA65CA65CA65CB6
S1131620A65CA65CA65CA65CA65CA65CA65CA65CA6
S1131630A65CA65CA65CA65CA65CA65CA65CA65C96
S1131640A65CA65CA65CA65CA65CA65CA65CA65C86
S1131650A65CA65CA65CA65CA65CA65CA67CA65C56
S1131660A65CA65CA65CA65CA65CA65CA65CA65C66
S1131670A65CA65CA65CA65CA65CA65CA65CA67C36
S1131680A65CA65CA65CA65CA65CA65CA65CA65C46
S1131690A65CA65CA65CA65CA65CA65CA65CA65C36
S11316A0A65CA65CA65CA65CA65CA65CA65CA65C26
S11316B0A65CA67CA67CA65CA67CA67CA65CA65C96
S11316C0A65CA65CA65CA67CA65CA67CA67CA65CA6
S11316D0A67CAE7CA65CA65CA65CA65CA65CA67C8E
S11316E0A65CA65CA65CA65CA65CA65CA65CA65CE6
S11316F0A65CA65CA65CA65CA65CA65CA65CA65CD6
S1131700A65CA65CA65CA67CA65CA67CAE7CA65C5D
S1131710A65CA65CA67CA67CA67CA67CA65CA65C35
S1131720A65CA65CA65CA65CA65CAE7CA65CA65C7D
S1131730A65CA67CA67CA65CA65CA67CAE7CA65C0D
S1131740A65BA65CA65BA65CA67CA67CA67CA65C27
S1131750A65CA67CA67CA65CA65CA65CA65CA65C35
S1131760A65CA65CA65CA65CAE7CA65CAE7CA67CF5
S1131770A67CA67CA67CA65CA67CAE7CA65CA65CAD
S1131780A65CA65CA67CA65CAE7CA65CA65CA65CFD
S1131790A65CA65CA65CA65BA65CA67CA67CA65CF6
S11317A0A65CA65CA67CA67CA65CA65CA67CA65CC5
S11317B0A65CA65CA65CA65BA65CA67CA65CA67CD6
S11317C0A65CA65CAE5CA65CA65CA65CA67CA65CDD
S11317D0A65CA65CA65BA65CA65CA65CA65CA65CF6
S11317E0A65CA65CA65CA65CA65CA65CA65CA65CE5
S11317F0A65CA65CA65BA65CA65CA65CA65BA65CD7
S1131800A65CA65CA65CA65CA65CA65CA65CA65CC4
S1131810A65CA65CA65CA65CA65CA65CA65CA63CD4
S1131820A65CA65CA63CA63CA65CA65CA65CA65CE4
S1131830A65CA65CA65CA63CA65CA65CA65CA65CB4
S1131840A63CA63CA65CA65CA65CA63CA65CA65CE4
S1131850A65CA65CA65CA65CA65CA65CA65CA65C74
S1131860A65CA65CA65CA65CA65CA65CA65CA65C64
S1131870A65CA65CA65CA63CA65CA65CA65CA65C74
S1131880A65CA65CA65CA65CA65CA65CA65CA65C44
S1131890A65CA65CA65CA65CA65CA65CA65CA65C34
S11318A0A65CA65CA65CA65CA65CA65CA65CA65C24
S11318B0A65CA65CA65CA65CA65CA65CA65CA65C14
S11318C0A65CA65CA65CA65CA65CA65CA65CA67CE4
S11318D0A65CA65CA65CA65CA65CA65CA67CA65CD4
S11318E0A65CA65CA67CA65CA65CA65CA67CA65CA4
S11318F0A65CA65CA65CA65CA65CA65CA65CA65CD4
S1131900A65CA65CA65CA65CA67CA65CA65CA65CA3
S1131910A65CA65CA65CA67CA65CA65CA65CA65C93
S1131920A65CA65CA65CA65CA65CA65CA65CA65CA3
S1131930A67CA67CA65CA65CA67CA65CA65CA65C33
S1131940A65CA65CA65CA65CA65CA67CA67CAE7C1B
S1131950A65CA65CA65CA65CA67CA67CA67CA65C13
S1131960A67CA65CA67CA67CA65CA65CA65CA65C03
S1131970A65CA65CA65CA67CA65CA65CA65CA65C33
S1131980A65CA65CA65CA65CA65CA65CA65CA65C43
S1131990A65CA65CA67CA67CA65CA65CA65CA67CD3
S11319A0A67CA65CA65CA65CA67CA67CA65CA65CC3
S11319B0A65CA67CA65CA67CA67CA67CAE7CA65C6B
S11319C0A65CA65CA65CA67CA65CA67CA67CA67C83
S11319D0A67CA65CA65CA65CA65CA65CA65CA67CB3
S11319E0A65CA67CA67CA67CA67CA65CA67CA67C23
S11319F0A65CA67CA65CA65CA67CA65CA67CA67C53
S1131A00A67CA65CA65CA67CA65CA65BA67CA67C43
S1131A10A65CA65CA65CA65CA65CA65CA65CAE7C8A
S1131A20AE7CAE7CA65CA65CA67CA65CA65CA65C32
S1131A30A65CA65CA65CA65CA65CA65CA65CA65C92
S1131A40A65CA65CA65CA65CA65CA65CA65CA65C82
S1131A50A65CA65CA67CA65CA65BA65BA67CA65C34
S1131A60A65CA67CA65CA65CA65CA65CA65CA65C42
S1131A70A65CA65BA65BA65CA65CA65CA65CA65C54
S1131A80A65CA65CA65CA65CA65CA65CA65CA65C42
S1131A90A65CA65CA65BA65BA65CA65CA65CA65C34
S1131AA0A65BA65CA65CA65CA65CA65CA65CA65C23
S1131AB0A65CA65CA63CA65CA65CA65CA65CA65C32
S1131AC0A65CA65CA65CA65CA65CA65CA65CA65C02
S1131AD0A65CA65CA65CA65CA65CA65CA65CA63C12
S1131AE0A65CA65CA65CA65CA65CA65CA65CA65CE2
S1131AF0A65CA65CA65CA65CA65CA65CA65CA65CD2
S1131B00A65CA65CA65CA65CA65CA65CA65CA65CC1
S1131B10A65CA65CA65CA65CA65CA65CA65CA65CB1
S1131B20A65CA65CA65CA65CA65CA65CA65CA65CA1
S1131B30A65CA65CA65CA65CA65CA65CA65CA65C91
S1131B40A65CA65CA65CA65CA65CA67CA65CA65C61
S1131B50A65CA67CA65CA65CA65CA65CA65CA65C51
S1131B60A65CA67CA67CA65CA65CA65CA67CA65C01
S1131B70A65CA65CA65CA65CA65CA65CA65CA67C31
S1131B80A67CA67CA65CA65CA65CA65CA65CA65C01
S1131B90A67CA65CA67CA67CA65CA65CA65CA65CD1
S1131BA0A65CA65CA67CA65CA65CA65CA67CA65CE1
S1131BB0A67CA67CA67CA67CA67CA65CA65CA65C71
S1131BC0A65CA65CA65CA65CA65CA65CAE7CA65CD9
S1131BD0A65CAE7CA65CA65CA67CA67CA67CA67C49
S1131BE0A65CA65CA67CA65CA65CA67CAE7CA65C79
S1131BF0A65CA67CA67CA67CA67CA67CA65CA67C11
S1131C00A67CA65CA65CAE7CA65CA65CA65CA65C78
S1131C10A65CA67CAE7CAE7CA67CA67CA67CA67CC0
S1131C20A67CA65CA67CA67CA67CA65CA65CA65C20
S1131C30AE7CA67CAE7CA67CA67CA67CA65CA65CC0
S1131C40A65CA65CA65CA67CA67CA67CA67CA65C00
S1131C50A67CA65CA65CAE7CA65CA65CA65CA65C28
S1131C60A65CA65CA67CA65CA65CA67CA67CA67CE0
S1131C70A67CAE7CA65CA65CA65CA67CA67CA67CA8
S1131C80A67CA65CA65CA65CA65CA65BA67CA67CE1
S1131C90A65CA65CA65CAE7CA65CA65CA65CA65C08
S1131CA0A65CA65CA65CAE7CA67CA65CA65CA65CD8
S1131CB0A65CA67CA65CA65CA65CA65CA65CA65CF0
S1131CC0A65CA65CA65CA65CA65CA65CA65CA65C00
S1131CD0A65CA65CA67CA65CA65CA65CA65CA65BD1
S1131CE0A65BA65CA65CA65CA67CA67CA65CA65CA1
S1131CF0A65CA65CA65CA65CA65CA65CA65CA65CD0
S1131D00A65CA65CA65CA65CA65CA65CA65CA65CBF
S1131D10A65CA65CA65BA65CA65CA65CA65CA65CB0
S1131D20A65CA65CA65CA65CA65CA65CA65CA65C9F
S1131D30A65CA65CA65CA65CA65C9E3CA65CA65CB7
S1131D40A65CA63CA65CA65CA65CA65CA65CA65C9F
S1131D50A65CA65CA65CA65CA65CA65CA65CA65C6F
S1131D60A65CA65CA65CA65CA65CA65CA65CA65C5F
S1131D70A65CA65CA65CA65CA65CA65CA65CA65C4F
S1131D80A65CA65CA65CA65CA65CA65CA65CA65C3F
S1131D90A65CA65CA65CA65CA65CA65CA65CA65C2F
S1131DA0A65CA65CA65CA65CA65CA65CA65CA65C1F
S1131DB0A65CA65CA65CA65CA65CA65CA65CA67CEF
S1131DC0A65CA65CA65CA65CA65CA67CA67CA65CBF
S1131DD0A65CA65CA67CA65CA65CA65CA65CA65CCF
S1131DE0A65CA65CA67CA65CA65CA65CA67CA67C7F
S1131DF0A67CA67CA67CA65CA67CA65CA65CA67C2F
S1131E00A65CA65CA65CA65CA65CA65CA65CA67C9E
S1131E10A67CA65CA65CA65CA65CA65CA67CA67C4E
S1131E20A67CA67CA67CA65CA65CA65CA65CA65C3E
S1131E30A65CA65CA67CA67CA67CA67CA65CA65C0E
S1131E40A67CA67CA65CA67CA67CA65CA65CA65CFE
S1131E50A65CA65CA67CA67CA67CA67CA67CA67CAE
S1131E60A65CA65CA67CA67CA65CA65CAE7CAE7CCE
S1131E70A67CA65CA67CA67CA67CA67CA67CA67C6E
S1131E80A67CA67CAE7CA65CA67CA65CA65CA65CB6
S1131E90A67CA67CA65CA65CA65CA67CA67CA65CAE
S1131EA0A65CA67CAE7CA65CAE7CA65CA65CA65CAE
S1131EB0A65CA65CA65CA67CA67CA65CA65CA65CCE
S1131EC0A65CA65CA67CA65CAE7CA65CA67CA65B97
S1131ED0A67CA65CA65CA65CA65CAE7CA65CA65CA6
S1131EE0A65CA65CAE7CAE7CAE7CA65CA65CA65C66
S1131EF0AE7CA65CA65CA65CA65CA67CA67CA67C46
S1131F00AE7CAE7CA65CA65CA65CA67CA67CA67C0D
S1131F10A65CA65CA65CA67CA65CA65CA67CA65C6D
S1131F20A65CA65CA65CA65CA65CA67CA67CA65C5D
S1131F30A67CA65CA65CA67CA65CA65CA67CA67C0D
S1131F40A65CA65CA67CA67CA65CA65CA65CA67C1D
S1131F50A65CA67CA65CA65CA65CA65CA65CA65C4D
S1131F60A65CA65CA65CA65CA67CA67CA65CA65C1D
S1131F70A65CA65CA65CA65CA65CA65CA65CA65C4D
S1131F80A65CA67CA65CA65CA65CA65CA65CA65C1D
S1131F90A65CA65CA65CA65CA65CA65CA65CA65C2D
S1131FA0A65CA65BA65CA65CA65CA65CA65CA63C3E
S1131FB0A63CA65CA65CA65CA65CA65CA65CA65C2D
S1131FC0A65CA65CA65CA65CA65CA65CA65CA65CFD
S1131FD0A65CA65CA65CA65CA65CA65CA65CA65CED
S1131FE0A65CA65CA65CA65CA65CA65CA65CA65CDD
S1131FF0A65CA65CA65CA65CA65CA65CA65CA65CCD
S1132000A65CA65CA65CA65CA65CA65CA65CA65CBC
S1132010A65CA65CA65CA65CA65CA65CA65CA65CAC
S1132020A65CA65CA65CA65CA65CA65CA65CA65C9C
S1132030A65CA65BA65CA65CA65CA65CA65CA65C8D
S1132040A65CA65CA65CA65CA65CA65CA67CA67C3C
S1132050A65CA65CA67CA65CA65CA67CA65CA67C0C
S1132060A67CA65CA67CA67CA67CA67CA65CA65CBC
S1132070A67CA65CA67CA67CA67CA65CA65CA67CAC
S1132080A65CA67CA67CA67CA65CA65CA67CA67C9C
S1132090A67CA65CA65CA65CA65CA67CA65CA65CEC
S11320A0A65CA65CA67CA67CA67CA67CA65CA65C9C
S11320B0A65CA65CA65CA65CA67CAE7CAE7CA65C9C
S11320C0A67CA67CA65CA67CA67CA65CA65CA65C7C
S11320D0AE7CAE7CA67CA65CA65CAE7CA67CA67C14
S11320E0AE7CA65CA67CA67CA65CA65CAE7CAE7C24
S11320F0A67CA67CA67CA67CAE7CA65CA65CAE7CFC
S1132100A67CA67CA65CA65CA67CAE7CAE7CAE7CE3
S1132110A67CA65CA65CAE7CA67CA67CA67CA65C03
S1132120A67CA67CA65CAE7CAE7CAE7CAE7CAE7C93
S1132130AE7CAE7CA65CA65CA67CA65CAE7CAE7CCB
S1132140AE7CAE7CA65CAE7CAE7CA65CA67CA65CBB
S1132150AE7CAE7CA67CA67CA67CA65CA65CA67C9B
S1132160A67CA65CA65CAE7CAE7CAE7CA65CA65CC3
S1132170AE7CA65CA65CA67CA67CAE7CAE7CAE7C6B
S1132180AE7CA65CAE7CA65CA65CAE7CA67CA65CA3
S1132190AE7CA65CA65CA65CAE7CA65CA65CA67CBB
S11321A0A65BA65CA65CA65CA65CAE7CA67CA67CB4
S11321B0A67CA65CA65CA67CA65CA65BA65BA67CAD
S11321C0A67CA67CA65CA65CA65BA65CA65CA65CBC
S11321D0A65CA65CA65CA65CA65CA65CA65CA65CEB
S11321E0A67CA65CA67CA65CA65CA67CA65CA65C7B
S11321F0A65CA65CA65CA65BA65CAE7CA65CA65CA4
S1132200A65CA65CA67CA67CA67CA67CA65CA65C3A
S1132210A65CA65CA65CA65CA65CA67CA65CA65C8A
S1132220A65CA65BA65CA65CA65CA65CA65CA65C9B
S1132230A65CA65CA65CA65CA65CA65CA65CA65C8A
S1132240A65CA65CA65CA65CA65CA65CA65CA65C7A
S1132250A65CA65CA65CA65CA65CA65CA65CA65C6A
S1132260A63CA65CA65CA65CA65CA65CA65CA65C7A
S1132270A65CA65CA65CA65CA65CA65CA65CA65C4A
S1132280A65CA65CA65CA65CA65CA65CA65CA65C3A
S1132290A65CA65CA65CA65CA65CA67CA65CA65C0A
S11322A0A65CA65CA65CA67CA65CA65CA65CA65CFA
S11322B0A67CA65CA65CA65CA65CA67CA65CA65CCA
S11322C0A65CA67CA67CA67CA65CA67CA67CA67C3A
S11322D0A65CA65CA65CA65CA67CA67CA65CA65CAA
S11322E0A65CA65CA65CA65CA67CAE7CA65CA65B93
S11322F0A65BA67CA65CA65CA67CA65CA65CA65C8B
S1132300A65CA67CA65CA65CA65CA65CA67CA67C59
S1132310A67CA67CA65CA67CA67CA67CA65CA65C09
S1132320A65CA65CA65CA67CA67CA67CA65CA65C39
S1132330AE7CA65CA65CA65CA65CA67CA65CA65C41
S1132340A65CA65CA65CA67CA67CA67CAE7CAE7CC9
S1132350A65CAE7CA67CA65CA65CAE7CA65CA67CD9
S1132360A65CA65CA65CA67CAE7CAE7CAE7CAE7C99
S1132370A67CA67CA67CA67CAE7CAE7CA65CAE7C51
S1132380A67CA67CA67CA67CA67CAE7CAE7CAE7C21
S1132390A67CA67CA65CAE7CAE7CA67CA67CA67C39
S11323A0AE7CA65CA65CAE7CAE7CAE7CA65CA65C79
S11323B0AE7CAE7CAE7CA65CA65CA65CA65CAE7C69
S11323C0AE7CA65CA65CAE7CAE7CAE7CA65CAE7C31
S11323D0AE7CA65CA67CA67CA67CA65CA65CA67C41
S11323E0A67CA67CA65CAE7CA65CAE7CAE7CA65C21
S11323F0AE7CA65CA65CA67CA67CAE7CA65CA65C39
S1132400A65CA67CA67CA65CA65CA65CA67CA67C38
S1132410AE7CAE7CA67CA65CAE7CA65CA65CA67CF0
S1132420A65CA67CA65CA65CA65CA65CA65CA65C78
S1132430A65CA65CA65CA65CA65CA65CA65CA67C68
S1132440A65CA65CA65CA65CA65CA65CA65CA65C78
S1132450A65CA65CA65CA65CA65CA65CA65CA65C68
S1132460A67CA65CA65CA65CA67CA67CA65CA65CF8
S1132470A65CAE7CA67CA65CA65CA65CA65CA65C00
S1132480A65CA65CA65CA65CA65CA65CA65CA65C38
S1132490A65CA65CA67CA65CA65CA67CA65CA65CE8
S11324A0A65CAE7CA65CA65CA65CA65CA65CA65CF0
S11324B0A65CA65CA65CA65CA65CA65CA65CA65C08
S11324C0A63CA65CA65CA65CA65CA65CA65CA65C18
S11324D0A65CA65CA65CA65CA65CA65CA65CA65CE8
S11324E0A65CA65CA65CA65CA65CA65CA65CA65CD8
S11324F0A65CA65CA65CA65CA65CA65CA65CA65CC8
S1132500A65CA65CA65CA65CA65CA65CA65CA65CB7
S1132510A65CA67CA65CA65CA65CA65CA65CA65C87
S1132520A65CA65CA65CA65CA65CA67CA67CA65B58
S1132530A65BA67CA67CA65CA65CA67CA67CA65C08
S1132540A65CA65CA65CA65CA65CA65CA67CA67C37
S1132550A67CA67CA65CA65CA65CA65CA65CA65C27
S1132560A65CA65CA65CA65CA67CA67CA65CA65C17
S1132570A65CA65CA67CA67CA67CA67CA65CA67CA7
S1132580A67CA65CA67CA67CA67CA67CA67CA67C57
S1132590A65CA65CAE7CA67CA67CA67CA67CA65C7F
S11325A0AE7CA65CA67CA67CA67CA67CA65CAE7C47
S11325B0AE7CAE7CAE7CA67CA67CA67CA67CA67CEF
S11325C0A67CA67CA65CA67CA67CA67CA65CA65C57
S11325D0A65CA65CA65CAE7CA65CA65CA67CA67C7F
S11325E0A65CA65CA67CA67CA67CA65CAE7CAE7C27
S11325F0A67CA67CAE7CA65CA65CAE7CAE7CA65C0F
S1132600A65CAE7CA67CA67CA67CAE7CAE7CAE7CB6
S1132610AE7CA67CAE7CAE7CA65CA65CA65CAE7CE6
S1132620AE7CA65CA67CA65CAE7CAE7CA65CA67CDE
S1132630A67CA65CA65CAE7CAE7CA65CAE7CAE7CC6
S1132640AE7CA65CA65CAE7CA65CA65CA65CAE7CFE
S1132650AE7CAE7CA65CA65CA65CAE7CAE7CA65CC6
S1132660AE7CAE7CAE7CAE7CA65CAE7CA67CA67C4E
S1132670A67CA67CA67CA67CA65CAE7CAE7CAE7C4E
S1132680A65CA65CA67CA67CA65CAE7CAE7CA67C86
S1132690A65CA65CAE7CA65CA65CAE7CAE7CA65CAE
S11326A0A67CA67CA65CA65CA65CA65CA67CA67C96
S11326B0A65CAE7CA65CAE7CAE7CA65CA65CA67C6E
S11326C0A67CA65CA67CA67CA67CA67CA67CA65C36
S11326D0A65CA65CA67CA67CA65CAE7CAE7CAE7C2E
S11326E0A67CA65CA65CA65CAE7CA65CA65CA65C8E
S11326F0A65CA65CA67CAE7CAE7CA65CA65CA65C56
S1132700A67CA65CA65BA65CA65CA65BA65CA65C97
S1132710A65CA65BA65CA65CA65CA65CA65CA65CA6
S1132720A65CA65CA63CA65CA65CA65CA65CA65CB5
S1132730A63CA65CA65CA65CA65CA65CA65CA65CA5
S1132740A65CA65CA65CA65CA65CA65CA65CA65C75
S1132750A65CA65CA65CA65CA65CA65CA65CA65C65
S1132760A65CA65CA65CA65CA65CA65CA65CA65C55
S1132770A65CA65CA65CA65CA65CA65CA65CA65C45
S1132780A65CA65CA65CA65CA65CA65CA65CA65C35
S1132790A65CA65CA65CA67CA65CA65CA65CA65C05
S11327A0A65CA65CA65CA65CA65CA65CA65CA65C15
S11327B0A65CA65CA67CA65CA65CA65CA65CA67CC5
S11327C0A65CA65CA67CA67CA65CA65CA65CA67C95
S11327D0A67CA67CA67CA67CA65CA65CA67CA67C25
S11327E0A65CA65CA65CA67CA65CA65CA65CA67C95
S11327F0A67CA65CA65CA65CA65CA65CA65CAE7C7D
S1132800AE7CA65CA67CA67CA67CA67CA65CA65C0C
S1132810A65CA67CA67CA67CA67CA67CA67CAE7CBC
S1132820AE7CAE7CA67CA67CA65CA67CA67CA65CC4
S1132830A65CAE7CA65CA65CA67CA67CA67CA67CDC
S1132840A67CA67CAE7CA65CA65CA65CA65CAE7CE4
S1132850AE7CA65CAE7CAE7CA65CA65CA67CA67CAC
S1132860A67CA65CA67CA67CA67CA67CAE7CAE7C64
S1132870AE7CA67CA65CA65CAE7CAE7CA65CA65CAC
S1132880AE7CAE7CA67CA65CA65CAE7CAE7CA65C74
S1132890AE7CA67CAE7CAE7CA65CA65CAE7CAE7C3C
S11328A0AE7CAE7CA67CAE7CAE7CAE7CAE7CA67CE4
S11328B0A67CA65CA65CAE7CAE7CA65CAE7CAE7C44
S11328C0AE7CAE7CA65CA65CA65CAE7CAE7CAE7C2C
S11328D0AE7CAE7CA65CAE7CAE7CAE7CAE7CA65CF4
S11328E0AE7CA65CAE7CAE7CAE7CAE7CA67CA67CCC
S11328F0A67CA67CAE7CAE7CA65CAE7CAE7CAE7CBC
S1132900A65CA65CA67CAE7CA65CA65CAE7CAE7C1B
S1132910AE7CAE7CAE7CAE7CA65CAE7CAE7CA67C93
S1132920A65CA65CA65CA65CA65CA67CA65CA67C53
S1132930AE7CAE7CA67CA67CA67CA65CA65BAE7CAC
S1132940AE7CA65CAE7CA65CA67CA67CA67CA65CC3
S1132950A65CA65CA65CA65CA65CAE7CA65CAE7C13
S1132960AE7CAE7CAE7CAE7CAE7CA65CA65BA67C6C
S1132970A65CA65CA65CA65CA65CA65CA65CA65C43
S1132980A67CA67CA65CA65CA65CA65CAE7CA65CCB
S1132990A65CA65CA65CA65BA65CAE7CA65CA65CFC
S11329A0A65CA65CA65CA65CA65CA65CA65CA65C13
S11329B0A65CA65CA65CA65CA65CA65CA65CA65C03
S11329C0A65CA65CA65CA65CA65CA65CA65CA65CF3
S11329D0A65CA65CA65CA65CA65CA65CA67CA65CC3
S11329E0A65CA65CA65CA65CA65CA65CA65CA65CD3
S11329F0A65CA65CA65CA65CA65CA65CA65CA65CC3
S1132A00A65CA65CA65CA65CA67CA65CA65CA67C72
S1132A10A65CA65CA65CA67CA65CA65CA65CA65C82
S1132A20A67CA65CA65CA65CA65CA65CA67CA65C52
S1132A30A67CA65CA65CA67CA67CA65BA65BA65C24
S1132A40A67CA67CA65CA65CA67CA65CA67CA65CF2
S1132A50A67CA65CA65CA67CA67CA65CA67CA67CC2
S1132A60A65CA67CA67CA65CA65BA67CA67CA65CD3
S1132A70A67CA67CA65CA65CA65CA65CA65CA65C02
S1132A80AE7CAE7CA67CA67CA67CA65CA65CAE7C5A
S1132A90A67CA67CA67CA67CA65CA65CA65CA65CA2
S1132AA0A65CA65CA65CA67CA67CA67CA67CA67C72
S1132AB0A65CA67CAE7CAE7CA67CA67CA65CA67C32
S1132AC0A67CA67CA65CAE7CAE7CAE7CAE7CAE7CEA
S1132AD0AE7CAE7CAE7CAE7CAE7CAE7CA67CA67CB2
S1132AE0A67CA65CA67CA67CA67CA67CAE7CAE7CE2
S1132AF0AE7CA65CA65CA65CAE7CA67CA67CA65C32
S1132B00AE7CAE7CA67CA67CA65CAE7CAE7CAE7CA9
S1132B10AE7CA67CA65CAE7CAE7CAE7CAE7CAE7C91
S1132B20AE7CA65CA67CAE7CAE7CAE7CAE7CA67C89
S1132B30A67CAE7CAE7CAE7CAE7CA65CAE7CAE7C71
S1132B40AE7CAE7CA67CA65CAE7CA65CAE7CAE7C89
S1132B50AE7CAE7CAE7CA65CA67CA67CA67CA67C69
S1132B60AE7CAE7CAE7CAE7CAE7CAE7CAE7CAE7C11
S1132B70A67CA67CAE7CAE7CAE7CAE7CAE7CAE7C11
S1132B80AE7CAE7CAE7CA65CAE7CAE7CA65CAE7C41
S1132B90AE7CA65CAE7CAE7CAE7CA65CA67CA67C41
S1132BA0A67CAE7CAE7CAE7CAE7CA67CA67CA67CF1
S1132BB0AE7CA65CA67CA67CA67CA67CAE7CAE7C09
S1132BC0AE7CAE7CAE7CAE7CA65CA65CA67CAE7C09
S1132BD0A65CA65CAE7CAE7CAE7CAE7CA65CA65C41
S1132BE0A65CAE7CA65CA65CA65CA65CA65CA65CA9
S1132BF0A65CA65CA65CA65BA65CA65CAE7CA65C9A
S1132C00A67CA67CA65CA65CA65CA65CA65CA65C70
S1132C10A65CA65CA65CA65CA65CA65CA65CA65CA0
S1132C20A65CA65CA65CA65CA65CA65CA65CA65C90
S1132C30A65CA65CA65CA65CA65CA65CA65CA65C80
S1132C40A65CA65CA65CA65CA65CA65CA67CA65C50
S1132C50A65CA65CA65CA65CA65CA65CA65CA65C60
S1132C60A65CA67CA65CA65CA65CA65CA65CA65C30
S1132C70A65CA65CA65CA65CA65CA65CA65CA65C40
S1132C80A65CA65CA65CA65CA65CA65CA65CA65C30
S1132C90A65CA65CA65BA65CA65CA65CA65CA67C01
S1132CA0A67CA65CA65CA65CA67CA65CA65CA65CD0
S1132CB0A67CA65CA67CA67CA67CA65CA67CA67C40
S1132CC0A65CAE7CA67CA65CA67CA65CA65CA65C88
S1132CD0A65CA65BA67CA67CA67CA67CA67CA67C21
S1132CE0A67CA67CA67CA67CA65CA67CA67CA67CF0
S1132CF0A67CA67CA67CA67CA67CA67CA67CA65CE0
S1132D00A67CA67CA67CA65CA65CA65CA65CA67C2F
S1132D10A67CA67CAE7CA65CA65CA65CA65CA65C37
S1132D20A67CA67CA67CA67CA67CAE7CAE7CAE7C77
S1132D30A65CA65CA67CA67CA67CA67CA67CA65CDF
S1132D40AE7CA65CAE7CAE7CAE7CAE7CA65CAE7C7F
S1132D50AE7CAE7CAE7CAE7CAE7CA65CAE7CAE7C47
S1132D60AE7CAE7CA67CA65CAE7CAE7CAE7CAE7C3F
S1132D70AE7CAE7CA67CAE7CA67CA67CAE7CAE7C17
S1132D80AE7CAE7CA67CAE7CAE7CAE7CAE7CAE7CF7
S1132D90AE7CAE7CA67CAE7CAE7CAE7CAE7CAE7CE7
S1132DA0AE7CAE7CAE7CAE7CAE7CAE7CAE7CA65CF7
S1132DB0A65CAE7CAE7CAE7CAE7CA65CAE7CAE7C0F
S1132DC0AE7CAE7CA67CAE7CAE7CA65CA65CAE7C07
S1132DD0AE7CA67CAE7CAE7CA65CAE7CAE7CAE7CCF
S1132DE0AE7CAE7CA67CAE7CAE7CA65CA65CAE7CE7
S1132DF0A65CAE7CAE7CAE7CA67CA67CAE7CAE7CB7
S1132E00AE7CAE7CA67CAE7CAE7CAE7CAE7CA67C7E
S1132E10A65CAE7CA67CAE7CAE7CA65CA67CA67CC6
S1132E20A65CAE7CA67CAE7CAE7CAE7CAE7CAE7C7E
S1132E30A65CAE7CA67BA67CA67CAE7CAE7CA67C87
S1132E40A65CAE7CAE5CA67CA67CA65CA65CA67CDE
S1132E50A67CA65CAE7CAE7CAE7CA65CA67CA67C86
S1132E60A65CAE7CA65CA65CA67CA67CA67CA67CA6
S1132E70A65CAE7CAE7CA65CAE7CAE7CA65CAE7C76
S1132E80A65CA65CAE7CA65CA65CA67CA65CAE5CDE
S1132E90A65CA67CA65CA67CA65CA67CA67CA65C9E
S1132EA0A65CA65CA65CA65CA65CA65CA65CA65C0E
S1132EB0A65CA65CA65CA65CA65CA65CA65CA65CFE
S1132EC0A65CA65CA65CA65CA65CA65CA65CA65CEE
S1132ED0A65CA65CA65CA65CA65CA65CA65CA65CDE
S1132EE0A65CA65CA65CA65CA65CA65CA65CA65CCE
S1132EF0A65CA65CA65CA65CA65CA65CA65CA65CBE
S1132F00A65BA67CA65CA65CA65CA65CA67CA65C6E
S1132F10A67CA65CA65CA65CA65CA67CA67CA65C3D
S1132F20A67CA65CA65CA65CA65CA67CA65CA65C4D
S1132F30A67CA67CA67CA67CA65CA65CA67CA65CDD
S1132F40A65CA65CA67CA67CA67CA65CA65CA67CED
S1132F50A67CA67CA67CA65CAE7CA67CA67CA65C95
S1132F60AE7CA67CA67CA67CA67CA67CA65CA67C65
S1132F70A67CA65CA67CA67CA67CA65CA67CA67C7D
S1132F80A67CA67CA67CA65CAE7CAE7CAE7CA67C35
S1132F90A65CA67CAE7CAE7CA65CAE7CAE7CAE7C35
S1132FA0AE7CA65CAE7CAE7CA67CA65CA65CAE7C4D
S1132FB0AE7CA67CAE7CAE7CAE7CAE7CAE7CAE7CC5
S1132FC0AE7CAE7CA67CA67CA67CA67CA67CAE7CD5
S1132FD0AE7CAE7CA67CAE7CAE7CA65CAE7CAE7CCD
S1132FE0AE7CAE7CAE7CA65CAE7CAE7CAE7CAE7CB5
S1132FF0AE7CAE7CAE7CAE7CA65CA65CAE7CAE7CCD
S1133000AE7CA65CA65CAE7CAE7CAE7CAE7CAE7CBC
S1133010AE7CAE7CAE7CAE7CAE7CAE7CAE7CAE7C5C
S1133020AE7CAE7CAE7CAE7CAE7CAE7CAE7CAE7C4C
S1133030AE7CAE7CAE7CAE7CAE7CAE7CAE7CAE7C3C
S1133040AE7CA65CA67CAE7CAE7CAE7CAE7CAE7C5C
S1133050AE7CAE7CAE7CAE7CAE7CAE7CAE7CAE7C1C
S1133060AE7CA65CAE7CAE7CAE7CAE7CAE7CAE7C34
S1133070AE7CAE7CAE7CAE7CAE7CAE7CA67CA67C0C
S1133080AE7CAE7CAE7CA65CAE7CAE7CAE7CAE7C14
S1133090AE7CAE7CAE7CAE7CAE7CAE7CAE7CA65C04
S11330A0A65CAE7CA65CAE7CAE7CAE7CAE7CAE7C1C
S11330B0A65CAE7CAE7CA67CA67CA65CAE7CA67C24
S11330C0A67CAE7CAE7CAE7CAE7CA65CA65CAE7C04
S11330D0AE7CA65CA67CA65CAE7CAE7CAE7CAE7CF4
S11330E0AE7CA65CAE7CA67CA67CA67CA65CAE7CF4
S11330F0A65CA67CA67CA65CA65CA65CA65CAE7C54
S1133100A65CAE7CAE7CA65CA65CA65CA65CA65C5B
S1133110A65CA65CAE5CAE7CA65CA65CA65CA65C6B
S1133120A65CA65CA65CA65CA65CA65CA65CA65C8B
S1133130A65CA65CA65CA65CA65CA65CA65CA65C7B
S1133140A65CA65CA65CA65CA65CA65CA65CA65C6B
S1133150A65CA65CA65CA65CA65CA65CA65CA65C5B
S1133160A65CA67CA65CA65CA65CA65CA65CA65C2B
S1133170A65CA65CA65CA65CA65CA65CA67CA65C1B
S1133180A65CA65CA65CA65CA65CA67CA67CA65CEB
S1133190A67CA65CA65CA65CA65CA65CA65CA65CFB
S11331A0A65CA65CA65CA65CA65CA65CA65CA65C0B
S11331B0A65CA65CA67CA67CA67CA67CA67CA65C5B
S11331C0A65CA65CA65CA67CA67CA67CA67CA67C4B
S11331D0A67CA65CA65CA65CAE7CA67CA67CA65C53
S11331E0AE7CAE7CA67CA67CA67CA67CA65CA65CFB
S11331F0AE7CAE7CA65CA65CA65CA65CA65CAE7C43
S1133200AE7CA67CA65CA65CAE7CAE7CAE7CA67CCA
S1133210A67CAE7CA65CAE7CAE7CAE7CAE7CA65CB2
S1133220AE7CA65CAE7CAE7CAE7CA65CA65CA65CEA
S1133230A65CA67CAE7CAE7CAE7CAE7CAE7CAE7C6A
S1133240AE7CAE7CAE7CAE7CAE7CAE7CAE7CA67C32
S1133250A67CAE7CAE7CAE7CA65CAE7CAE7CAE7C4A
S1133260AE7CAE7CAE7CAE7CAE7CA65CA65CAE7C5A
S1133270AE7CAE7CAE7CAE7CAE7CAE7CAE7CAE7CFA
S1133280AE7CA65CA65CAE7CA65CA65CAE7CAE7C8A
S1133290AE7CAE7CA67CAE7CAE7CAE7CAE7CAE7CE2
S11332A0AE7CAE7CAE7CAE7CAE7CAE7CAE7CAE7CCA
S11332B0AE7CAE7CAE7CAE7CAE7CA65CA65CAE7C0A
S11332C0AE7CAE7CAE7CAE7CAE7CAE7CAE7CAE7CAA
S11332D0AE7CAE5CAE7CA65CAE7CAE7CAE7CAE7CE2
S11332E0AE7CAE7CAE7CAE7CAE7CAE7CAE7CAE7C8A
S11332F0AE7CAE7CA65CAE7CAE7CAE7CAE7CAE7CA2
S1133300AE7CAE7CAE7CAE7CAE7CAE7CAE7CAE7C69
S1133310AE7CAE7CA65CA65CAE7CAE7CAE7CAE7CA9
S1133320AE7CAE7CAE7CAE7CAE7CAE7CAE7CA67C51
S1133330A67CAE7CAE7CA67CA67CAE7CAE7CA67C59
S1133340A67CAE7CAE5CAE7CAE7CAE7CA67CAE7C59
S1133350AE7CA67CA65CA67CAE7CAE7CAE7CA65C79
S1133360A65CA67CA67CA67CAE7CAE7CA67CA67C59
S1133370A67CA65CA67CA67CA65CA65CAE7CAE7C89
S1133380A65CAE7CAE7CA67CA67CAE7CAE7CA65C49
S1133390A65CAE7CAE7CA65CA65CA65CA65CA65CC9
S11333A0A67CA67CA65CA65CA65CA65CA65CA65CC9
S11333B0A65CA65CA65CA65CA65CA65CA65CA65CF9
S11333C0A65CA65CA65CA65CA65CA65CA65CA65CE9
S11333D0A65CA65CA65CA65CA65CA67CA65CA65CB9
S11333E0A65CA67CA65CA65CA65CA65CA65CA65CA9
S11333F0A65CA65CA65CA65CA65CA65CA65CA65CB9
S1133400A65CA65CA65CA65CA65CA65CA65CA65CA8
S1133410A65CA65CA65CA65CA67CA65CA65CAE7C50
S1133420A65CA65CA65CA67CA65CA67CAE7CA65C20
S1133430A67CA67CA65CA67CA67CA67CA67CAE7C90
S1133440AE7CA65CA65CA67CA67CA67CA67CA67CA0
S1133450A67CA67CAE7CA65CAE7CAE7CA67CA65C80
S1133460AE7CAE7CA67CA67CA67CA67CA65CAE7C50
S1133470AE7CAE7CA67CA67CA65CA65CAE7CAE7C58
S1133480AE7CAE7CAE7CAE7CAE7CAE7CAE7CAE7CE8
S1133490AE7CAE7CAE7CA65CA65CAE7CAE7CAE7C28
S11334A0AE7CA67CAE7CAE7CAE7CAE7CAE7CAE7CD0
S11334B0A65CAE7CAE7CAE7CAE7CAE7CAE7CAE7CE0
S11334C0AE7CAE7CAE7CAE7CAE7CAE7CAE7CA65CD0
S11334D0A65CAE7CAE7CA65CAE7CA67CA67CAE7CF8
S11334E0AE7CAE7CAE7CAE7CAE7CAE7CAE7CAE7C88
S11334F0AE7CAE7CAE7CAE7CAE7CAE7CAE7CAE7C78
S1133500AE7CAE7CAE7CAE7CAE7CAE7CAE7CAE7C67
S1133510AE7CAE7CA65CAE7CAE7CAE7CAE7CA67C87
S1133520AE7CAE7CAE7CAE7CAE7CAE7CAE7CAE7C47
S1133530AE7CAE7CAE7CAE7CAE7CAE7CA65CAE7C5F
S1133540AE7CAE7CAE7CAE7CAE7CAE7CAE7CAE7C27
S1133550AE7CAE7CAE7CAE7CAE7CAE7CAE7CAE7C17
S1133560AE7CAE7CAE7CAE7CAE7CAE7CAE7CAE7C07
S1133570AE7CAE7CAE7CAE7CAE7CAE7CAE7CAE7CF7
S1133580AE7CAE7CAE7CAE7CAE7CAE7CAE7CAE7CE7
S1133590AE7CAE7CAE7CAE7CAE7CAE7CAE7CAE7CD7
S11335A0AE7CAE7CAE7CAE7CAE7CAE7CAE7CAE7CC7
S11335B0AE7CAE7CAE7CA65CAE7CAE7CAE7CAE7CDF
S11335C0AE7CA65CA65CAE7CAE7CAE7CA67CAE7CFF
S11335D0AE7CA67CAE7CAE7CAE7CA65CAE7CAE7CC7
S11335E0AE7CA67CAE7CAE7CA67CA67CAE7CA65CC7
S11335F0AE7CA67CA67CA67CAE7CAE7CA65CA65CDF
S1133600AE7CAE7CA65CA67CA67CA65CAE5CA65C0E
S1133610AE7CA67CA65CA65CA67CA67CA65CA67CEE
S1133620A67CA67CA65CA65CA65CA65CA65CA65C46
S1133630A65CA65CA65CA65CA65CA65CA67CA65C56
S1133640A65CA65CA65CA65CA65CA65CA65CA65C66
S1133650A65CA65CA65CA67CA65CA65CA65CA65C36
S1133660A67CA65CA65CA65CA65CA65CA65CA65C26
S1133670A65CA65CA65CA65CA65CA65CA67CA65C16
S1133680A65CA67CA67CA65CA65CA65CA65CA67CC6
S1133690A67CA67CA67CA65CA67CA65CA65CA67C76
S11336A0A65CA65CA67CA67CA67CA67CAE7CAE7C36
S11336B0A65CA67CA65CA67CA67CA65CA65CAE7C6E
S11336C0AE7CA65CAE7CAE7CAE7CA67CA67CA67CE6
S11336D0A67CA67CAE7CAE7CA65CA67CAE7CAE7CD6
S11336E0AE7CAE7CA67CA67CA67CA67CAE7CAE7CA6
S11336F0AE7CAE7CAE7CA67CAE7CAE7CAE7CAE7C7E
S1133700AE7CAE7CAE7CAE7CAE7CAE7CA65CA67C95
S1133710AE7CAE7CAE7CAE7CAE7CAE7CAE7CAE7C55
S1133720AE7CAE7CAE7CAE7CAE7CA65CA65CAE7C95
S1133730AE7CAE7CAE7CAE7CAE7CAE7CAE7CAE7C35
S1133740AE7CAE7CAE7CAE7CAE7CAE7CAE7CAE7C25
S1133750AE7CAE7CAE7CAE7CAE7CAE7CA67CAE7C1D
S1133760AE7CAE7CAE7CAE7CAE7CAE7CAE7CAE7C05
S1133770AE7CAE7CAE7CAE7CAE7CAE7CAE7CAE7CF5
S1133780AE7CAE7CAE7CAE7CAE7CAE7CAE7CAE7CE5
S1133790AE7CAE7CAE7CAE7CAE7CAE7CAE7CA67CDD
S11337A0AE7CAE7CAE7CAE7CAE7CAE7CAE7CAE7CC5
S11337B0AE7CAE7CAE7CAE7CAE7CAE7CAE7CAE7CB5
S11337C0AE7CAE7CAE7CAE7CAE7CAE7CAE7CAE7CA5
S11337D0AE7CAE7CAE7CAE7CA65CAE7CAE7CAE7CBD
S11337E0AE7CAE7CAE7CAE7CAE7CAE7CAE7CAE7C85
S11337F0AE7CAE7CAE7CAE7CAE7CAE7CAE7CAE7C75
S1133800AE7CAE7CAE7CAE7CAE7CAE7CAE7CAE7C64
S1133810AE7CAE7CAE7CAE7CAE7CAE7CA67CAE7C5C
S1133820AE7CAE7CAE7CAE7CAE7CAE7CAE7CAE7C44
S1133830AE7CAE7CAE7CAE7CAE7CAE7CAE7CAE7C34
S1133840AE7CA67CA67CAE7CA67CAE7CAE7CAE7C3C
S1133850AE7CAE7CAE7CAE7CAE7CAE7CAE7CAE7C14
S1133860AE7CA65CAE7CAE7CA67CA67CA67CAE7C44
S1133870AE7CAE7CA65CAE7CAE7CAE7CAE7CAE7C1C
S1133880AE7CAE7CA65CA65CAE7CA65CA65CAE7C84
S1133890AE7CA65CA65CA65CA65CAE7CA65CAE7C9C
S11338A0AE7CAE7CA65CA65CA65CA65CA65CA65CB4
S11338B0A65CA65CA65CA65CA65CA65CA65CA65CF4
S11338C0A65CA65CA65CA65CA65CA65CA65CA65CE4
S11338D0A65CA67CA65CA65CA65CA65CA67CA65C94
S11338E0A65CA67CA65CA65CA65CA67CA67CA65C64
S11338F0A65CA65CA65CA65CA67CA65CA65BA67C75
S1133900A67CA65CA65CA65CA65BA65CA67CA65C64
S1133910A67CA67CA67CA67CA65CA67CA65CA67CD3
S1133920A67CA67CA65CA67CA67CA67CAE7CA65CBB
S1133930A65CA65CA67CA67CA65CAE7CA65CAE7CE3
S1133940AE7CAE7CAE7CA65CAE7CAE7CAE7CAE7C4B
S1133950A65CA67CAE7CAE7CAE7CA67CA67CAE7C53
S1133960AE7CAE7CAE7CAE7CA67CAE7CAE7CAE7C0B
S1133970A65CAE7CAE7CA67CA67CAE7CAE7CA67C33
S1133980A67CA67CAE7CAE7CAE7CAE7CA67CA67C03
S1133990AE7CAE7CAE7CAE7CAE7CAE7CAE7CAE7CD3
S11339A0A65CAE7CAE7CAE7CAE7CA67CA65CAE7C1B
S11339B0AE7CAE7CAE7CAE7CAE7CAE7CAE7CAE7CB3
S11339C0AE7CAE7CAE7CAE7CAE7CAE7CAE7CAE7CA3
S11339D0AE7CAE7CAE7CAE7CAE7CAE7CAE7CAE7C93
S11339E0AE7CAE7CAE7CAE7CAE7CAE7CAE7CAE7C83
S11339F0AE7CAE7CAE7CAE7CAE7CAE7CAE7CAE7C73
S1133A00AE7CAE7CAE7CAE7CAE7CAE7CAE7CAE7C62
S1133A10AE7CAE7CAE7CAE7CAE7CAE7CAE7CAE7C52
S1133A20AE7CAE7CAE7CAE7CAE7CAE7CAE7CAE7C42
S1133A30AE7CAE7CAE7CAE7CAE7CAE7CAE7CAE7C32
S1133A40AE7CAE7CAE7CAE7CAE7CAE7CAE7CAE7C22
S1133A50AE7CAE7CAE7CAE7CAE7CAE7CAE7CAE7C12
S1133A60AE9CAE7CAE7CAE7CAE7CAE7CAE7CAE7CE2
S1133A70AE7CAE7CAE7CAE7CAE7CAE7CAE7CAE7CF2
S1133A80AE7CAE7CAE7CAE7CAE7CAE7CAE7CAE7CE2
S1133A90AE7CAE7CAE7CAE7CAE7CAE7CAE7CAE7CD2
S1133AA0AE7CAE7CAE7CAE7CAE7CAE7CAE7CAE7CC2
S1133AB0AE7CAE7CAE7CAE7CAE7CAE7CAE7CAE7CB2
S1133AC0AE7CAE7CAE7CA67CAE7CAE7CAE5CAE7CCA
S1133AD0AE7CAE7CAE7CAE7CAE7CAE7CAE7CA65CBA
S1133AE0AE7CAE7CAE7CAE7CAE7CAE7CA67CA67C92
S1133AF0AE7CAE7CAE7CAE7CAE7CAE7CAE5CAE7C92
S1133B00AE7CA65CA65CAE5CAE5CAE7CA65CAE7C19
S1133B10AE7CA65CA65CA67CA67CA67CA65CAE7CE1
S1133B20A65CAE7CA65CA65CA65CA65CA65CA65C59
S1133B30A65CA65CA65CA65CA65CA65CA65CA65C71
S1133B40A65CA65CA65CA65CA65CA65CA65CA65C61
S1133B50A65CA65CA67CA67CA65CA65CA67CA65CF1
S1133B60A65CA67CA67CA65CA67CA67CA67CA65CA1
S1133B70A65CA65CA67CA65CA65CA67CA67CA67CB1
S1133B80A67CA65CA65CAE7CA65CA65CA67CA67C99
S1133B90A67CA67CA67CA67CA65CAE7CAE7CA65C41
S1133BA0A65CA65CAE7CAE7CAE7CA67CA65CA65C69
S1133BB0AE7CAE7CA67CA67CA65CAE7CAE7CAE7CE9
S1133BC0AE7CAE7CAE7CAE7CAE7CAE7CAE7CAE7CA1
S1133BD0A65CA65CA65CAE7CAE7CA67CAE7CAE7C11
S1133BE0AE7CAE7CAE7CAE7CAE7CAE7CAE7CAE7C81
S1133BF0AE7CAE7CAE7CAE7CAE7CAE7CAE7CAE7C71
S1133C00AE7CAE7CAE7CAE7CA65CA67CAE7CAE7C90
S1133C10AE7CA65CAE7CAE7CAE7CA65CAE7CAE7CA0
S1133C20AE7CAE7CAE7CAE7CAE7CAE7CAE7CAE7C40
S1133C30AE7CAE7CA67CAE7CAE7CAE7CAE7CAE7C38
S1133C40AE7CAE7CAE7CAE7CAE7CAE7CAE7CAE7C20
S1133C50AE7CAE7CAE7CAE7CAE7CAE7CAE7CAE7C10
S1133C60AE7CAE7CAE7CAE7CAE7CAE7CAE7CAE7C00
S1133C70AE7CAE7CAE7CAE7CAE7CAE7CAE7CAE7CF0
S1133C80AE7CAE7CAE7CAE7CAE7CAE7CAE7CAE7CE0
S1133C90AE7CAE7CAE7CAE7CAE7CAE7CAE7CAE7CD0
S1133CA0AE7CAE7CAE7CAE7CAE7CAE7CAE7CAE7CC0
S1133CB0AE7CAE7CAE7CAE7CAE7CAE7CAE7CAE7CB0
S1133CC0AE7CAE7CAE7CAE7CAE7CAE7CAE7CAE9C80
S1133CD0AE7CAE7CAE7CAE7CAE7CAE7CAE7CAE7C90
S1133CE0AE7CAE7CAE7CAE7CAE7CAE7CAE7CAE7C80
S1133CF0AE7CAE7CAE7CAE7CAE7CAE7CAE7CAE7C70
S1133D00AE7CAE7CAE7CAE7CAE7CAE7CAE9CAE7C3F
S1133D10AE7CAE7CAE7CAE7CAE7CAE7CAE7CAE7C4F
S1133D20AE7CAE7CAE7CAE7CAE7CAE7CAE7CAE7C3F
S1133D30AE7CAE7CAE7CAE7CAE5CAE7CAE7CAE7C4F
S1133D40AE7CAE7CAE7CAE7CAE7CAE7CAE5CAE7C3F
S1133D50AE7CAE7CAE7CAE7CA67BAE7CAE7CAE7C18
S1133D60AE7CAE7CAE7CAE7CAE7CAE7CAE7CAE7CFF
S1133D70AE7CAE7CAE5CAE7CAE7CAE7CAE7CAE5C2F
S1133D80AE7CA67CAE7CAE7CAE7CAE7CAE7CAE5C07
S1133D90AE7CAE7CA65CAE7CA67CA67CA67CAE7C0F
S1133DA0A65CA65CA65CA65CA65CA65CA65CA65CFF
S1133DB0A65CA65CA65CA65CA65CA65CA65CA65CEF
S1133DC0A65CA65CA65CA65CA65CA65CA65CA65CDF
S1133DD0A67CA65CA65CA67CA67CA65CA65CA65C6F
S1133DE0A67CA67CA67CA67CA67CA65CA67CA67CDF
S1133DF0A65CA65CA65CA65CA65CA65CA67CA67C6F
S1133E00A67CA65CA65CA65CAE7CA65CA65CA67C36
S1133E10A67CA67CA67CA67CA65CA65CAE7CAE7CBE
S1133E20AE7CAE7CAE7CAE7CAE7CAE7CAE7CAE7C3E
S1133E30AE7CAE7CAE7CA67CA65CAE7CAE7CAE7C5E
S1133E40AE7CAE7CAE7CAE7CAE7CAE7CAE7CAE7C1E
S1133E50AE7CA65CAE7CA65CAE7CAE7CAE7CAE7C5E
S1133E60AE7CAE7CAE7CAE7CAE7CAE7CAE7CAE7CFE
S1133E70AE7CAE7CA65CAE7CAE7CAE7CAE7CAE7C16
S1133E80AE7CAE7CAE7CAE7CAE7CAE7CA67CA67CEE
S1133E90AE7CAE7CAE7CAE7CAE7CAE7CAE7CAE7CCE
S1133EA0AE7CAE7CAE7CAE7CAE7CAE7CAE7CAE7CBE
S1133EB0AE7CAE7CAE7CAE7CAE7CAE7CAE7CAE7CAE
S1133EC0A65CA65CAE7CAE7CAE7CAE7CAE7CAE7CEE
S1133ED0AE7CAE7CAE7CAE7CAE7CAE7CAE7CAE7C8E
S1133EE0AE7CAE7CAE7CAE7CAE7CAE7CAE7CAE7C7E
S1133EF0AE7CAE7CAE7CAE7CAE7CAE7CAE7CAE7C6E
S1133F00AE7CAE7CAE7CAE7CAE7CAE7CAE7CAE7C5D
S1133F10AE7CAE7CAE7CAE7CAE7CAE7CAE7CAE7C4D
S1133F20AE7CAE7CAE7CAE7CAE7CAE7CAE7CAE7C3D
S1133F30AE7CAE7CAE7CAE7CAE7CAE7CAE7CAE7C2D
S1133F40AE7CAE7CAE7CAE7CAE7CAE7CAE7CAE7C1D
S1133F50AE7CAE7CAE7CAE7CAE7CAE7CAE7CAE7C0D
S1133F60AE7CAE7CAE7CAE7CAE7CAE7CAE7CAE7CFD
S1133F70AE7CAE7CAE7CAE7CAE7CAE7CAE7CAE7CED
S1133F80AE7CAE7CAE7CAE7CAE7CAE7CAE7CA67CE5
S1133F90AE7CAE7CAE7CAE7CAE7CAE7CAE7CAE7CCD
S1133FA0AE7CAE7CAE7CAE7CAE7CAE7CAE7CAE7CBD
S1133FB0A67CA67CAE7CAE7CAE5CAE7CAE7CAE7CDD
S1133FC0AE7CAE7CAE7CAE7CAE7CAE7CAE7CAE7C9D
S1133FD0AE7CAE7CAE7CAE7CAE7CAE7CAE7CAE5CAD
S1133FE0AE7CAE7CAE7CAE7CAE5CAE5CAE7CAE7CBD
S1133FF0AE7CAE7CAE7CAE7CAE7CAE7CAE7CAE5C8D
S1134000AE7CA67CAE7CA67CA67CAE7CA67CA67C84
S1134010AE7CAE5CAE5CAE7CAE5CAE7CAE7CAE5CCC
S1134020AE5CAE7CA65CA65CA65CA65CA65CA65C4C
S1134030A65CA65CA65CA65CA65CA65CA65CA67C4C
S1134040A65CA65CAE7CA65CA65CA65CA65CA65C34
S1134050A67CA67CA67CA67CA67CA67CA67CA65C6C
S1134060AE7CA65CA65CA65CA67CA67CA67CA67C94
S1134070A65CA65CA65CA65CA65CA67CA67CA67CCC
S1134080A67CA67CAE7CA65CA67CA65CA67CAE7C4C
S1134090A67CA67CA67CA67CA65CA65CA65CAE7C64
S11340A0AE7CAE7CA67CAE7CAE7CAE7CAE7CAE7CC4
S11340B0AE7CAE7CAE7CAE7CAE7CAE7CAE7CAE7CAC
S11340C0AE7CAE7CAE7CAE7CAE7CAE7CAE7CAE7C9C
S11340D0AE7CAE7CA67CAE7CAE7CAE7CAE7CAE7C94
S11340E0AE7CAE7CAE7CAE7CAE7CAE7CAE7CAE7C7C
S11340F0AE7CAE7CAE7CAE7CA65CAE7CAE7CAE7C94
S1134100AE7CAE7CAE7CAE7CAE7CAE7CAE7CAE7C5B
S1134110AE7CAE7CAE7CAE7CAE7CAE7CA67CA67C5B
S1134120AE7CAE7CAE7CAE7CAE7CAE7CAE7CAE7C3B
S1134130AE7CAE7CA67CAE7CAE7CAE7CAE7CAE7C33
S1134140AE7CAE7CAE7CAE7CAE7CAE7CAE7CAE7C1B
S1134150AE7CAE7CAE7CAE7CAE7CAE7CAE7CAE7C0B
S1134160AE7CAE7CAE7CAE7CAE7CAE7CAE7CAE7CFB
S1134170AE7CAE7CAE7CAE7CAE7CAE7CAE5CAE7C0B
S1134180AE7CAE7CAE7CAE7CAE7CAE7CAE7CAE7CDB
S1134190AE7CAE7CAE7CAE7CAE7CAE7CAE7CAE7CCB
S11341A0AE9CAE7CAE7CA67CAE7CAE7CAE7CAE7CA3
S11341B0AE7CAE5CAE7CAE7CAE7CAE7CAE7CAE7CCB
S11341C0AE7CAE9CAE7CAE7CAE7CAE7CAE7CAE7C7B
S11341D0AE7CAE7CAE7CAE7CAE7CAE7CAE7CAE7C8B
S11341E0AE7CAE7CAE7CAE7CAE7CAE7CAE7CAE7C7B
S11341F0AE7CAE7CAE7CAE7CAE7CAE7CAE7CAE7C6B
S1134200AE7CAE7CAE7CAE7CAE7CAE7CAE7CAE7C5A
S1134210AE7CAE7CAE7CAE7CAE7CAE7CAE7CAE7C4A
S1134220AE7CAE7CAE7CAE7CAE7CAE7CAE7CAE7C3A
S1134230AE7CAE5CAE7CA67CA67CAE7CAE7CAE7C5A
S1134240AE7CAE7CAE7CAE7CAE7CAE7CAE7CA67C22
S1134250A67CAE7CA67CAE7CAE7CAE7CA65CAE7C42
S1134260AE7CA67CAE7CAE7CAE7CA65CA67CAE7C32
S1134270AE7CAE5CA67CAE7CAE7CA67CAE7CAE7C1A
S1134280AE5CA65CA65CA65CAE7CAE7CA65CAE7C9A
S1134290AE7CAE7CAE5CAE7CAE5CAE7CAE7CAE7C0A
S11342A0AE5CAE7CA65CA65CA65CA65CA67CA67C8A
S11342B0A65CA65CA65CA65CA65CA65CA65CA65CEA
S11342C0A67CA67CAE7CA65CA67CA65CA65CA65C52
S11342D0A65CA65CA65CA65CA65CA65CA65CA65CCA
S11342E0A67CA65CAE7CA67CA67CA65CA65CA65C32
S11342F0A65CA65CA65CA65CA67CA67CA67CA65C4A
S1134300A67CA67CAE7CA67CA67CA67CAE7CAE7C81
S1134310AE7CA65CA65CAE7CA65CAE7CAE7CAE7CC1
S1134320AE7CAE7CA67CAE7CAE7CAE7CA67CA67C51
S1134330A67CAE7CA67CAE7CAE7CAE7CA65CA67C69
S1134340AE7CAE7CAE7CAE7CAE7CAE7CAE7CAE7C19
S1134350AE7CAE7CAE7CAE7CAE7CAE7CAE7CAE7C09
S1134360AE7CAE7CAE7CAE7CAE7CAE7CAE7CAE7CF9
S1134370AE7CAE7CAE7CAE7CAE7CAE7CAE7CAE7CE9
S1134380AE7CAE7CAE7CAE7CAE7CAE7CAE7CAE7CD9
S1134390AE7CAE7CAE7CAE7CAE7CAE7CAE7CAE7CC9
S11343A0AE7CAE7CAE7CAE7CAE7CAE7CAE7CAE7CB9
S11343B0AE7CAE7CA67CAE7CAE7CAE7CAE7CAE7CB1
S11343C0AE7CAE7CAE7CAE7CAE7CAE7CAE7CAE7C99
S11343D0AE7CAE7CAE7CAE7CAE7CAE7CAE7CAE7C89
S11343E0AE7CAE7CAE7CAE7CAE7CAE7CAE7CAE7C79
S11343F0AE7CAE7CAE7CAE7CAE7CAE7CAE7CAE7C69
S1134400AE7CAE7CAE7CAE7CAE7CAE7CAE7CAE7C58
S1134410AE7CAE7CAE7CAE7CAE7CAE7CAE7CAE7C48
S1134420AE9CAE9CAE7CAE7CAE7CAE7CAE7CAE7CF8
S1134430AE7CAE7CAE7CAE7CAE7CAE7CAE7CAE7C28
S1134440AE7CAE7CAE7CAE7CAE7CAE7CAE7CAE9CF8
S1134450AE7CAE7CAE7CAE7CAE7CAE7CAE7CAE7C08
S1134460AE7CAE9CAE7CAE7CAE7CAE7CAE7CAE7CD8
S1134470AE7CAE7CAE7CAE7CAE7CAE7CAE7CAE7CE8
S1134480AE7CAE7CAE7CAE7CAE7CAE7CAE7CAE7CD8
S1134490AE7CAE7CAE7CAE7CAE7CAE7CAE7CAE7CC8
S11344A0AE7CAE7CAE7CAE7CAE7CAE7CAE7CAE7CB8
S11344B0AE7CAE7CAE7CAE7CA67CAE7CAE7CAE7CB0
S11344C0AE7CAE7CAE7CAE7CAE7CAE7CAE7CAE7C98
S11344D0AE7CAE7CAE7CAE7CAE7CAE7CA67CA67C98
S11344E0AE7CAE7CAE7CAE7CAE7CAE7CAE7CAE7C78
S11344F0AE7CAE7CAE7CA65CAE7CAE7CAE7CAE7C90
S1134500AE7CAE7CAE7CAE7CAE5CAE7CAE7CAE7C77
S1134510AE7CAE7CAE7CAE7CAE7CA65CA65CAE7C97
S1134520AE7CAE7CA67CA65CA65CA65CA65CA65C07
S1134530AE7CA65CA67CA65CA67CA67CA65CA65CDF
S1134540A67CA67CA65CA67CA67CA67CA67CA67C77
S1134550A67CA67CA65CA65CA67CA65CA65CA65CE7
S1134560A67CA67CA65CA67CA67CA67CA65CAE7C6F
S1134570AE7CA65CA67CA67CA65CA65CA65CA67C9F
S1134580A67CA67CAE7CA67CA67CAE7CAE7CAE7CF7
S1134590AE7CA65CAE7CAE7CA65CAE7CAE7CA67C1F
S11345A0A67CA67CAE7CAE7CAE7CAE7CA67CAE7CCF
S11345B0AE7CAE7CAE7CAE7CAE7CAE7CAE7CA67CAF
S11345C0AE7CAE7CAE7CAE7CAE7CAE7CAE7CAE7C97
S11345D0AE7CAE7CAE7CAE7CAE7CAE7CAE7CAE7C87
S11345E0AE7CAE7CAE7CAE7CAE7CAE7CAE7CAE7C77
S11345F0AE7CAE7CA67CAE7CAE7CAE7CAE7CAE7C6F
S1134600AE7CAE7CAE7CAE7CAE7CAE7CAE7CAE7C56
S1134610AE7CAE7CAE7CAE7CAE7CAE7CAE7CAE7C46
S1134620AE7CAE7CAE7CAE7CAE7CAE7CAE7CAE7C36
S1134630AE7CAE7CAE7CAE7CAE7CAE7CAE7CAE7C26
S1134640AE7CAE7CAE7CAE7CAE7CAE7CAE7CAE7C16
S1134650AE7CAE7CAE7CAE7CAE7CAE7CAE7CAE7C06
S1134660AE7CAE7CAE7CAE7CAE7CAE7CAE7CAE7CF6
S1134670AE7CAE7CAE7CAE7CAE7CAE7CAE7CAE7CE6
S1134680AE7CAE7CAE7CAE7CAE7CAE7CAE7CAE7CD6
S1134690AE7CAE7CAE7CAE7CAE7CAE7CAE7CAE7CC6
S11346A0AE7CAE7CAE7CAE7CAE7CAE7CAE7CAE7CB6
S11346B0AE7CAE7CAE7CAE7CAE7CAE7CAE7CAE7CA6
S11346C0AE7CAE7CAE7CAE9CAE7CAE7CAE7CAE9C56
S11346D0AE9CAE7CAE7CAE7CAE7CAE7CAE7CAE7C66
S11346E0AE7CAE7CAE7CAE7CAE7CAE7CAE7CAE7C76
S11346F0AE7CAE7CAE7CAE7CAE7CAE7CAE7CAE7C66
S1134700AE7CAE7CAE7CAE7CAE7CAE7CAE7CAE7C55
S1134710AE7CAE7CAE7CAE7CAE7CAE7CAE7CAE7C45
S1134720AE7CAE7CAE7CAE7CAE7CAE7CAE7CAE7C35
S1134730AE7CA67CAE7CAE7CAE7CAE7CAE7CAE7C2D
S1134740AE7CAE5CAE7CAE7CAE7CAE7CAE7CAE7C35
S1134750AE7CAE7CAE7CAE7CAE7CAE7CA67CA67C15
S1134760A65CAE5CAE7CAE7CAE7CAE7CAE7CAE7C3D
S1134770AE7CAE7CAE7CAE7CAE7CAE7CAE5CAE7C05
S1134780AE7CA65CAE7CAE7CAE7CAE5CAE7CAE7C1D
S1134790AE7CAE7CAE7CAE7CAE7CA67CAE7CAE7CCD
S11347A0AE7CAE7CA67CA65CA65CA65CA65CA65C85
S11347B0A67CA65CA65CA67CA67CA65CA65CA67C65
S11347C0A67CA67CA65CA67CA67CA65CA65CA65C55
S11347D0A67CA67CA67CA67CA67CA65CA67CA67CE5
S11347E0AE7CAE7CA67CA67CA67CA67CA67CA65CC5
S11347F0A65CA67CA67CA67CAE7CA65CAE7CAE7CCD
S1134800AE7CAE7CA67CA67CA67CAE7CAE7CAE7C6C
S1134810AE7CAE7CAE7CAE7CA65CAE7CAE7CAE7C6C
S1134820AE7CA67CAE7CAE7CAE7CAE7CAE7CAE7C3C
S1134830AE7CAE7CAE7CA67CAE7CAE7CAE7CAE7C2C
S1134840AE7CAE7CAE7CAE7CAE7CAE7CAE7CAE7C14
S1134850AE7CAE7CAE7CAE7CAE7CAE7CAE7CAE7C04
S1134860AE7CAE7CAE7CAE7CAE7CAE7CAE7CAE7CF4
S1134870AE7CAE7CAE7CAE7CAE7CAE7CAE7CAE7CE4
S1134880AE7CAE7CAE7CAE7CAE7CAE7CAE7CAE7CD4
S1134890AE7CAE7CAE7CAE7CAE7CAE7CAE7CAE7CC4
S11348A0AE7CAE7CAE7CAE7CAE7CAE7CAE7CAE7CB4
S11348B0AE7CAE7CAE7CAE7CAE7CAE7CAE7CAE7CA4
S11348C0AE7CAE7CAE7CAE7CAE7CAE7CAE7CAE7C94
S11348D0AE7CAE7CAE7CAE7CAE7CAE7CAE7CAE7C84
S11348E0AE7CAE7CAE7CAE7CAE7CAE7CAE7CAE7C74
S11348F0AE7CAE7CAE7CAE7CAE7CAE7CAE7CAE7C64
S1134900AE7CAE7CAE7CAE7CAE7CAE7CAE7CAE7C53
S1134910AE7CAE7CAE9CAE7CAE7CAE7CAE7CAE7C23
S1134920AE7CAE7CAE7CAE7CAE7CAE7CAE7CAE7C33
S1134930AE7CA69CAE7CAE9CAE7CAE7CAE7CAE7CEB
S1134940AE7CAE7CAE7CAE7CAE7CAE7CAE7CAE7C13
S1134950AE7CAE7CAE7CAE7CAE7CAE7CAE7CAE7C03
S1134960AE7CAE7CAE7CAE7CAE9CAE7CAE7CAE7CD3
S1134970B67CAE7CAE7CAE7CAE7CAE7CAE7CAE7CDB
S1134980AE7CAE7CAE7CAE7CAE7CAE7CAE7CAE7CD3
S1134990AE7CAE7CAE7CAE7CAE7CAE7CAE7CAE7CC3
S11349A0AE7CAE7CAE7CAE7CAE7CAE7CAE7CAE7CB3
S11349B0AE7CAE7CAE7CAE7CAE7CAE7CAE7CAE7CA3
S11349C0AE7CAE7CAE7CAE7CAE7CAE7CAE7CAE7C93
S11349D0AE7CAE7CAE7CAE7CAE7CAE7CAE7CAE7C83
S11349E0AE7CAE7CAE7CAE7CAE7CAE7CAE7CAE7C73
S11349F0AE7CAE7CA65CAE7CAE7CAE5BAE7CAE7CAC
S1134A00AE7CAE7CAE7CAE7CAE7CAE7CAE7CAE7C52
S1134A10AE7CAE7CAE7CAE7CAE7CAE7CAE7CAE7C42
S1134A20A67CAE7CA67CA65CA65CA65CA67CA65CEA
S1134A30A65CA67CA65CA67CA67CA65CA67CA67CC2
S1134A40A65CA65CA65CA67CA67CA67CA67CA67CB2
S1134A50A67CA67CA67CA67CA67CA67CA65CA65C82
S1134A60AE7CAE7CAE7CA67CA67CA65CA65CA65C7A
S1134A70A67CA67CA65CA65CAE7CAE7CAE7CAE7C42
S1134A80AE7CAE7CAE7CAE7CAE7CAE7CAE7CAE7CD2
S1134A90AE7CAE7CAE7CAE7CAE7CAE7CAE7CAE7CC2
S1134AA0AE7CAE7CAE7CAE7CAE7CAE7CAE7CAE7CB2
S1134AB0AE7CAE7CA67CAE7CAE7CAE7CAE7CAE7CAA
S1134AC0AE7CAE7CAE7CAE7CAE7CAE7CAE7CAE7C92
S1134AD0AE7CAE7CAE7CAE7CAE7CAE7CAE7CAE7C82
S1134AE0AE7CAE7CAE7CAE7CAE7CAE7CAE7CAE7C72
S1134AF0AE7CAE7CAE7CAE7CAE7CAE7CAE7CAE7C62
S1134B00AE7CAE7CAE7CAE7CAE7CAE7CAE7CAE7C51
S1134B10AE7CAE7CAE7CAE7CAE7CAE7CAE7CAE7C41
S1134B20AE7CAE7CAE7CAE7CAE7CAE7CAE7CAE7C31
S1134B30AE7CAE7CAE7CAE7CAE7CAE7CAE7CAE7C21
S1134B40AE7CAE7CAE7CAE7CAE9CAE9CAE7CAE7CD1
S1134B50AE7CAE7CAE7CAE7CAE7CAE7CAE7CAE9CE1
S1134B60AE9CAE7CAE7CAE7CAE7CAE7CAE7CAE7CD1
S1134B70AE7CAE7CAE7CAE7CAE7CAE7CAE9CAE9CA1
S1134B80AE7CAE7CAE7CAE7CAE7CAE7CAE7CAE7CD1
S1134B90AE7CAE7CAE7CAE7CAE7CAE7CAE7CAE7CC1
S1134BA0AE7CAE7CAE7CAE7CAE7CAE7CAE7CAE7CB1
S1134BB0AE7CAE9CAE7CAE7CAE7CAE9CAE7CAE7C61
S1134BC0AE7CAE7CAE9CAE9CAE7CAE7CAE7CAE7C51
S1134BD0AE7CAE7CAE7CAE9CAE7CAE9CAE7CAE7C41
S1134BE0AE7CAE7CAE7CAE7CAE7CAE7CAE7CAE7C71
S1134BF0AE7CAE7CAE7CAE7CAE9CAE7CAE7CAE7C41
S1134C00AE7CAE7CAE7CAE7CAE7CAE7CAE7CAE7C50
S1134C10AE7CAE7CAE7CAE7CAE7CAE7CAE7CAE7C40
S1134C20AE7CAE7CAE7CAE7CAE7CAE7CAE7CAE7C30
S1134C30AE7CAE7CAE7CAE7CAE7CAE7CAE7CAE7C20
S1134C40A69CAE7CAE7CAE7CAE7CAE7CAE7CAE7CF8
S1134C50AE7CAE7CA67CAE7CAE7CAE7CAE7CAE7C08
S1134C60AE7CAE7CAE9CAE7CAE5CAE7CAE7CAE7CF0
S1134C70AE7CAE7CAE7CAE7CAE7CAE7CAE7CAE7CE0
S1134C80AE7CAE7CAE7CAE7CAE7CAE7CAE7CAE7CD0
S1134C90AE7CAE7CAE5CAE5CAE7CAE7CAE7CAE7C00
S1134CA0A67CAE7CA65CA65CA65CA65CA65CA65CA8
S1134CB0A65CA67CA67CA65CA65CA67CA67CA67C40
S1134CC0AE7CA65CA65CA67CA67CA67CA67CA67C08
S1134CD0A67CA67CA67CA67CA67CAE7CAE7CA65CD0
S1134CE0AE7CA65CAE7CAE7CA67CA65CAE7CAE7CC8
S1134CF0AE7CA67CAE7CAE7CAE7CAE7CA65CA67C98
S1134D00A65CAE7CAE7CA67CAE7CAE7CAE7CAE7C7F
S1134D10AE7CAE7CAE7CAE7CAE7CAE7CAE7CAE7C3F
S1134D20AE7CAE7CAE7CAE7CAE7CAE7CAE7CAE7C2F
S1134D30AE7CAE7CAE7CAE7CAE7CAE7CAE7CAE7C1F
S1134D40AE7CAE7CAE7CAE7CA65CAE7CAE7CAE7C37
S1134D50AE7CAE7CAE7CAE7CAE7CAE7CAE7CAE7CFF
S1134D60AE7CAE7CAE7CAE7CAE7CAE7CAE7CAE7CEF
S1134D70AE7CAE7CAE7CAE7CAE7CAE7CAE7CAE7CDF
S1134D80AE7CAE7CAE7CAE7CAE7CAE7CAE7CAE7CCF
S1134D90AE7CAE7CAE7CAE7CAE7CAE7CAE7CAE7CBF
S1134DA0AE7CAE7CAE7CAE7CAE7CAE7CAE7CAE7CAF
S1134DB0AE7CAE7CAE7CAE7CAE7CAE7CAE7CAE7C9F
S1134DC0AE7CAE7CAE7CAE7CAE9CAE7CAE7CAE7C6F
S1134DD0AE7CAE7CAE7CAE7CAE7CAE7CAE7CAE7C7F
S1134DE0AE9CAE7CAE7CAE7CAE7CAE7CAE7CAE7C4F
S1134DF0AE7CAE9CAE7CAE7CAE7CAE7CAE7CAE7C3F
S1134E00AE7CAE7CAE7CAE7CAE9CAE7CAE7CAE7C2E
S1134E10AE9CAE9CAE7CAE7CAE7CAE7CAE7CAE7CFE
S1134E20AE7CAE9CAE7CAE7CAE9CAE7CAE7CAE7CEE
S1134E30AE7CAE7CAE7CAE7CAE7CAE7CAE7CAE7C1E
S1134E40AE7CAE7CAE9CAE7CAE7CAE7CAE7CAE7CEE
S1134E50AE7CAE9CAE7CAE9CAE7CAE7CAE7CAE7CBE
S1134E60AE7CAE9CAE7CAE7CAE7CAE7CAE7CAE9CAE
S1134E70AE7CAE7CAE7CAE7CAE7CAE7CAE7CAE7CDE
S1134E80AE7CAE7CAE7CAE7CAE7CAE7CAE7CAE7CCE
S1134E90AE7CAE7CAE7CAE7CAE9CAE7CAE7CAE7C9E
S1134EA0AE7CAE7CAE7CAE7CAE7CAE7CAE7CAE7CAE
S1134EB0AE7CAE7CAE7CAE7CAE7CAE7CAE7CAE7C9E
S1134EC0AE7CAE7CAE9CAE7CAE7CAE7CAE7CAE7C6E
S1134ED0AE7CAE7CAE7CAE7CAE7CAE7CAE7CAE7C7E
S1134EE0AE7CAE7CAE7CAE7CAE7CAE7CAE7CAE7C6E
S1134EF0AE7CAE7CAE7CAE7CAE7CAE7CAE7CAE7C5E
S1134F00AE7CAE7CAE7CAE7CAE7CAE7CAE7CAE7C4D
S1134F10AE7CAE7CAE7CAE5CAE7CAE7CAE7CAE7C5D
S1134F20AE7CAE7CA65CA65CA67CA65CA65CA67CDD
S1134F30A67CA67CAE7CAE7CAE7CAE7CA67CA67C3D
S1134F40A65CAE7CA65CA65CAE7CA67CA67CAE7C95
S1134F50AE7CAE7CA67CA67CAE7CAE7CAE7CAE7C0D
S1134F60A65CAE7CA65CA65CAE7CA65CAE7CA65CB5
S1134F70AE7CAE7CAE7CAE7CAE7CAE7CA67CA67CED
S1134F80AE7CAE7CAE7CAE7CAE7CAE7CAE7CAE7CCD
S1134F90AE7CAE7CAE7CAE7CAE7CAE7CAE7CAE7CBD
S1134FA0AE7CAE7CAE7CAE7CAE7CAE7CAE7CAE7CAD
S1134FB0AE7CAE7CAE7CAE7CAE7CAE7CAE7CAE7C9D
S1134FC0AE7CAE7CAE7CAE7CAE7CAE7CAE7CAE7C8D
S1134FD0AE7CAE7CAE7CAE7CAE7CAE7CAE7CAE7C7D
S1134FE0AE7CAE7CAE7CAE7CAE7CAE7CAE7CAE7C6D
S1134FF0AE7CAE7CAE7CAE7CAE7CAE7CAE7CAE7C5D
S1135000AE7CAE7CAE7CAE7CAE7CAE7CAE7CAE7C4C
S1135010AE7CAE7CAE7CAE7CAE9CAE7CAE7CAE7C1C
S1135020AE7CAE7CAE7CAE7CAE7CAE7CAE9CAE7C0C
S1135030AE7CAE7CAE7CAE7CAE7CAE7CAE7CAE7C1C
S1135040AE7CAE7CAE7CAE7CAE7CAE7CAE7CAE7C0C
S1135050AE7CAE7CAE7CAE7CAE7CAE7CAE7CAE7CFC
S1135060AE7CAE7CAE7CAE7CAE7CAE7CAE7CAE7CEC
S1135070AE7CAE7CAE7CAE7CAE7CAE7CAE7CAE7CDC
S1135080AE7CAE7CAE9CAE7CAE7CAE7CAE7CAE7CAC
S1135090AE7CAE7CAE7CAE9CAE7CAE7CAE7CAE7C9C
S11350A0AE7CAE7CAE7CAE7CAE7CAE7CAE7CAE7CAC
S11350B0AE7CAE7CAE7CAE7CAE7CAE7CAE9CAE7C7C
S11350C0AE7CAE7CAE7CAE7CAE7CAE7CAE7CAE7C8C
S11350D0AE7CAE7CAE7CAE9CAE7CAE9CAE7CAE7C3C
S11350E0AE7CAE7CAE9CAE7CAE7CAE7CAE7CAE9C2C
S11350F0AE9CAE7CAE7CAE7CAE7CAE7CAE7CAE9C1C
S1135100AE7CAE7CAE7CAE7CAE7CAE7CAE7CAE7C4B
S1135110AE7CAE7CAE7CAE7CAE7CAE7CAE7CAE7C3B
S1135120AE7CAE7CAE7CAE7CAE7CB67CAE7CAE7C23
S1135130AE7CAE7CAE7CAE7CAE7CAE7CAE7CAE7C1B
S1135140AE7CAE7CAE7CAE7CAE7CAE7CAE7CAE7C0B
S1135150AE7CAE7CAE7CAE7CAE7CAE7CAE7CAE7CFB
S1135160AE7CAE7CAE7CAE7CAE7CAE7CAE7CAE7CEB
S1135170AE7CAE7CAE7CAE7CAE7CAE7CAE7CAE7CDB
S1135180AE7CAE7CAE7CAE7CAE7CAE7CAE7CAE7CCB
S1135190AE7CAE7CAE7CAE7CAE7CAE7CAE7CAE7CBB
S11351A0AE7CAE7CA67CA67CAE7CAE7CAE7CA65CE3
S11351B0A65CA67CA67BAE7CAE7CA65CA67CAE7C04
S11351C0A65CAE7CAE7CAE7CA65CAE7CAE7CAE7CDB
S11351D0AE7CAE7CA67CAE7CAE7CA65CAE7CAE7CAB
S11351E0AE7CAE7CAE7CAE7CAE7CA65CAE7CAE7C93
S11351F0AE7CAE7CA65CAE7CAE7CAE7CAE7CAE7C83
S1135200AE7CAE7CAE7CAE7CAE7CAE7CAE7CAE7C4A
S1135210AE7CAE7CAE7CAE7CAE7CAE7CAE7CAE7C3A
S1135220AE7CAE7CAE7CAE7CAE7CAE7CAE7CAE7C2A
S1135230AE7CAE7CAE7CAE7CAE7CAE7CAE7CAE7C1A
S1135240AE7CAE7CAE7CAE7CAE9CAE7CAE7CAE7CEA
S1135250AE7CAE7CAE7CAE7CAE7CAE7CAE7CAE7CFA
S1135260AE7CAE7CAE7CAE7CAE7CAE7CAE7CAE7CEA
S1135270AE7CAE7CAE7CAE7CAE7CAE7CAE7CAE7CDA
S1135280AE7CAE7CAE7CAE7CAE7CAE7CAE7CAE7CCA
S1135290AE7CAE9CAE7CAE9CAE7CAE7CAE7CAE7C7A
S11352A0AE7CAE7CAE7CAE7CAE7CAE7CAE7CAE7CAA
S11352B0AE7CAE7CAE7CAE7CAE7CAE7CAE7CAE7C9A
S11352C0AE7CAE7CAE7CAE7CAE7CAE7CAE9CAE7C6A
S11352D0AE7CAE7CAE7CAE7CAE7CAE7CAE7CAE7C7A
S11352E0AE7CAE7CAE7CAE7CAE7CAE7CAE7CAE7C6A
S11352F0AE7CAE7CAE7CAE7CAE7CAE7CAE7CAE9C3A
S1135300AE9CAE7CAE9CAE9CB69CAE7CAE7CAE7CC1
S1135310AE7CAE7CAE7CAE7CAE7CAE7CAE7CAE7C39
S1135320AE9CAE7CAE7CAE7CAE7CAE7CAE7CAE7C09
S1135330AE7CAE7CAE7CAE7CB69CAE9CAE9CAE7CB1
S1135340AE7CAE9CB69CAE9CAE9CAE7CAE7CAE7C81
S1135350AE7CAE7CAE7CAE7CAE7CAE7CAE9CAE7CD9
S1135360AE7CAE7CAE7CAE7CAE7CAE9CAE9CAE7CA9
S1135370AE7CAE7CAE7CAE7CAE9CAE7CAE7CAE9C99
S1135380AE7CAE7CAE9CAE7CAE7CAE9CB69CAE9C41
S1135390AE7CAE9CAE7CAE7CAE7CAE7CAE7CAE7C99
S11353A0AE7CAE7CAE7CAE7CAE7CAE7CAE7CA67CB1
S11353B0AE7CAE7CAE7CAE7CAE7CAE7CAE7CAE7C99
S11353C0AE7CAE7CAE7CAE7CAE7CAE7CAE7CAE7C89
S11353D0AE7CAE7CAE7CB69CAE7CAE7CAE7CAE7C51
S11353E0AE7CAE7CAE7CAE7CAE7CAE7CAE7CAE9C49
S11353F0AE7CAE7CAE7CAE7CAE7CAE7CAE9CAE7C39
S1135400AE7CAE7CAE7CAE7CAE7CAE7CAE7CAE7C48
S1135410AE7CAE7CAE7CAE7CAE7CAE7CAE7CAE7C38
S1135420AE7CAE7CAE7CA67CA65CA67CAE7CAE7C60
S1135430A65CA67CAE5CAE7CA67CA67CA67CAE7C80
S1135440A65CAE7CAE7CA67CA67CAE7CAE7CAE7C40
S1135450A65CA65CAE7CAE7CAE7CAE7CAE7CAE7C48
S1135460AE7CAE7CAE7CAE7CAE7CA67CA67CAE5C18
S1135470AE7CAE7CAE7CAE7CAE7CAE7CA67CAE7CE0
S1135480AE7CAE7CAE7CAE7CAE7CAE7CAE7CAE7CC8
S1135490AE7CAE7CAE7CAE7CAE7CAE7CAE7CAE7CB8
S11354A0AE7CAE7CAE7CAE7CAE7CAE7CAE7CAE7CA8
S11354B0AE7CAE7CAE7CAE7CAE7CAE7CAE7CAE7C98
S11354C0AE7CAE7CAE7CAE7CAE7CAE7CAE9CAE7C68
S11354D0AE7CAE7CAE7CAE7CAE7CAE7CAE7CAE7C78
S11354E0AE7CAE7CAE7CAE7CAE7CAE7CAE7CAE7C68
S11354F0AE7CAE7CAE7CAE7CAE7CAE9CAE7CAE7C38
S1135500AE7CAE7CAE7CAE7CAE7CAE9CAE7CAE7C27
S1135510AE9CAE9CAE7CAE7CAE7CAE7CAE7CAE7CF7
S1135520AE7CAE7CAE7CAE7CAE7CAE9CAE7CAE7C07
S1135530AE7CAE7CAE7CAE7CAE7CAE7CAE7CAE7C17
S1135540AE7CAE7CAE7CAE9CAE9CAE7CAE7CAE7CC7
S1135550AE7CAE7CAE7CAE7CAE7CAE7CAE7CAE9CD7
S1135560AE7CAE7CAE7CAE7CAE7CAE7CAE9CAE7CC7
S1135570AE7CAE7CAE7CAE7CAE9CAE9CAE7CAE7C97
S1135580AE9CAE7CAE7CAE9CB69CAE7CAE7CAE7C5F
S1135590AE7CAE7CAE9CAE7CAE9CAE7CAE9CAE7C57
S11355A0AE9CAE7CAE7CAE7CAE7CB69CAE9CAE7C3F
S11355B0AE7CAE7CAE7CAE7CAE7CAE9CAE9CAE7C57
S11355C0AE7CAE9CAE7CAE7CAE9CB69CB67CAE9CF7
S11355D0AE7CAE7CAE7CB67CAE7CAE7CAE7CAE7C6F
S11355E0AE7CAE7CAE7CAE9CAE9CAE9CAE7CAE7C07
S11355F0AE7CAE9CAE7CAE7CAE9CAE7CAE7CAE7C17
S1135600AE7CAE7CAE7CAE7CAE7CAE7CAE7CAE7C46
S1135610AE9CAE9CAE7CAE7CAE7CAE7CAE7CAE7CF6
S1135620AE7CAE7CAE7CAE7CAE7CAE7CAE7CAE7C26
S1135630B67CAE9CAE7CAE7CAE7CAE7CAE7CAE7CEE
S1135640AE7CAE7CAE7CAE7CAE7CAE7CAE7CB67CFE
S1135650B67CAE9CB67CAE7CAE9CAE7CAE7CAE7CA6
S1135660AE7CAE7CAE7CAE7CAE7CAE7CAE7CAE7CE6
S1135670AE7CAE7CAE7CAE7CAE7CAE7CAE7CAE7CD6
S1135680AE7CAE7CAE7CAE7CAE7CAE7CAE7CAE7CC6
S1135690AE7CAE7CAE7CAE7CAE7CAE7CAE7CAE7CB6
S11356A0AE7CAE7CAE7CAE7CA67CA67CA65CAE7CDE
S11356B0AE7CA67CA67CA67CA67CAE7CAE7CA65CDE
S11356C0AE7CA67CA65CA67CA67CAE7CAE7CA65CEE
S11356D0AE7CAE7CA67CAE7CA67CA67CA67CAE7C96
S11356E0A67CA67CAE7CAE7CAE7CAE7CAE7CAE7C76
S11356F0AE7CAE7CA67CAE7CAE7CA67CAE7CAE7C66
S1135700AE7CAE7CAE7CAE7CAE7CAE7CAE7CAE7C45
S1135710AE7CAE7CAE7CAE7CAE7CAE7CAE7CAE7C35
S1135720AE7CAE7CAE7CAE7CAE7CAE7CAE7CAE7C25
S1135730AE9CAE7CAE9CAE7CAE7CAE7CAE7CAE7CD5
S1135740AE7CAE7CAE7CAE7CAE7CAE7CAE7CAE7C05
S1135750AE7CAE7CAE7CAE7CAE7CAE7CAE7CAE7CF5
S1135760AE7CAE7CAE7CAE7CAE7CAE7CAE7CAE7CE5
S1135770AE9CAE7CAE7CAE7CAE7CAE7CAE7CAE7CB5
S1135780AE7CAE7CAE7CAE7CAE7CAE7CAE7CAE7CC5
S1135790AE7CAE7CAE7CAE7CAE7CAE7CAE7CAE7CB5
S11357A0AE9CAE7CAE7CB69CAE7CAE7CAE7CAE9C3D
S11357B0AE7CAE7CAE7CAE7CAE7CAE7CAE7CAE7C95
S11357C0AE7CAE9CAE7CAE7CAE9CAE7CAE7CAE7C45
S11357D0AE7CAE9CAE7CAE7CAE7CAE7CAE9CAE7C35
S11357E0AE7CAE7CAE7CAE7CAE7CAE9CAE9CAE7C25
S11357F0AE9CB67CAE7CAE9CAE9CAE7CAE7CAE7CED
S1135800AE7CAE7CAE7CAE7CAE7CAE7CB69CAE7C1C
S1135810AE7CAE9CAE7CB69CAE7CAE9CAE7CAE7CCC
S1135820AE7CB69CAE9CAE9CAE9CAE7CAE7CAE9C7C
S1135830AE7CAE7CAE7CAE7CAE7CAE9CAE9CAE7CD4
S1135840AE7CAE7CB69CAE9CAE7CAE7CAE7CAE9C9C
S1135850AE9CAE7CAE7CAE9CAE9CAE9CAE7CAE9C54
S1135860B69CAE7CAE7CB69CB69CB69CAE7CAE7C44
S1135870AE7CB69CB69CAE7CB67CAE7CAE7CAE7C7C
S1135880AE7CAE7CAE7CAE7CB69CAE9CAE7CAE7C7C
S1135890B67CAE7CAE7CAE7CAE7CAE7CAE7CAE9C8C
S11358A0AE7CAE7CAE7CAE9CAE7CAE7CAE7CAE7C84
S11358B0AE7CAE7CAE7CB67CAE9CAE7CAE7CAE7C6C
S11358C0AE7CAE7CAE7CAE9CAE7CAE7CAE7CAE7C64
S11358D0AE7CAE7CAE7CAE7CAE7CAE7CAE7CAE7C74
S11358E0AE7CAE7CAE7CAE7CAE7CAE7CAE7CAE7C64
S11358F0AE7CAE7CAE7CAE7CAE7CAE7CAE7CAE7C54
S1135900AE7CAE7CAE7CAE7CAE7CAE7CAE7CAE7C43
S1135910AE7CAE7CAE7CAE7CAE7CAE7CAE7CAE7C33
S1135920AE7CAE7CAE7CAE7CA67CAE7CAE7CAE7C2B
S1135930AE7CAE7CA67CAE7CA65CAE7CA65CA65C93
S1135940AE7CA67CAE7CAE7CA67CAE7CAE7CAE7C13
S1135950AE7CAE7CAE7CAE7CAE7CAE7CAE7CAE7CF3
S1135960AE7CAE7CAE7CAE7CAE7CAE7CAE7CAE7CE3
S1135970AE7CAE7CA67CAE7CAE7CA67CAE7CAE7CE3
S1135980A67CAE7CAE7CAE7CAE7CAE7CAE7CAE7CCB
S1135990AE7CAE7CAE7CAE7CAE7CAE7CAE7CAE7CB3
S11359A0AE7CAE7CAE7CAE7CAE7CAE7CAE7CAE7CA3
S11359B0AE7CAE7CAE7CAE7CAE7CAE7CAE7CAE7C93
S11359C0AE7CAE7CAE7CAE7CAE7CAE7CAE7CAE7C83
S11359D0AE7CAE7CAE7CAE7CAE7CAE7CAE7CAE7C73
S11359E0AE7CAE7CAE7CAE7CAE7CAE7CAE7CAE7C63
S11359F0AE9CAE7CAE7CAE7CAE7CAE7CAE7CAE7C33
S1135A00AE7CAE9CAE9CAE7CAE7CAE9CAE7CAE7CE2
S1135A10AE7CAE9CAE7CAE9CAE7CAE9CAE7CAE7CD2
S1135A20AE7CAE7CAE7CAE9CAE7CAE7CAE7CAE9CE2
S1135A30AE7CAE7CAE7CAE7CAE7CAE7CAE7CAE7C12
S1135A40AE7CAE9CAE7CAE7CAE7CAE7CAE9CB67CBA
S1135A50AE7CAE7CAE7CAE7CAE7CAE7CAE9CAE7CD2
S1135A60AE7CAE7CAE7CAE7CAE7CB69CAE7CAE7CBA
S1135A70AE7CAE7CAE9CAE9CB69CB67CAE7CAE9C42
S1135A80AE7CAE7CAE7CAE7CAE7CAE7CAE7CAE7CC2
S1135A90AE7CAE7CAE7CAE9CAE9CAE7CAE7CAE7C72
S1135AA0AE7CAE7CAE7CAE9CAE9CAE7CAE7CAE9C42
S1135AB0AE7CB67CAE7CAE7CB69CB69CB69CB69CEA
S1135AC0AE7CB67CB67CB69CAE7CAE7CAE9CAE9C0A
S1135AD0AE7CB67CAE9CAE7CB69CB69CAE7CAE7CFA
S1135AE0B69CAE9CB67CB69CB69CB69CAE7CAE7C9A
S1135AF0AE9CAE9CAE9CAE9CAE7CAE7CAE7CAE7CD2
S1135B00AE7CAE7CAE9CAE9CAE9CAE7CAE7BAE7CE2
S1135B10AE7CAE7CAE7CAE7CAE7CAE7CB67CB69C01
S1135B20AE9CAE7CAE7CAE9CAE9CAE7CAE7CAE7CC1
S1135B30AE7CAE9CAE7CAE7CAE7CAE7CAE7CAE7CF1
S1135B40AE7CAE7CAE7CAE7CAE7CAE7CAE7CAE9CE1
S1135B50AE9CAE7CAE7CAE7CAE7CAE7CAE7CAE7CD1
S1135B60AE7CAE7CAE7CAE7CAE7CAE7CAE7CAE7CE1
S1135B70AE7CAE7CB69CAE7CAE7CAE7CAE7CAE7CA9
S1135B80AE7CAE7CAE7CAE7CAE7CAE7CAE7CAE7CC1
S1135B90AE7CAE7CAE7CAE7CAE7CAE7CAE7CAE7CB1
S1135BA0AE7CAE7CAE7CAE7CA67CAE7CA65CA65CF9
S1135BB0AE7CAE7CA67CA67CA65CAE7CAE7CAE7CC9
S1135BC0AE7CAE7CAE7CAE7CAE7CAE7CAE7CAE7C81
S1135BD0A67CAE7CAE7CAE7CA65CAE5CAE7CAE7CC1
S1135BE0AE7CA65CAE5CAE7CAE7CAE7CA67CA67CB9
S1135BF0AE7CAE7CAE7CAE7CAE7CAE7CAE7CAE7C51
S1135C00AE7CAE7CAE7CAE7CAE7CAE7CAE7CAE7C40
S1135C10AE7CAE7CAE7CAE7CAE7CAE7CAE7CAE7C30
S1135C20AE7CAE7CAE7CAE9CAE7CAE7CAE7CAE7C00
S1135C30AE7CAE7CAE7CAE7CAE7CAE7CAE9CAE7CF0
S1135C40AE7CAE7CAE7CAE7CAE7CAE7CAE9CAE9CC0
S1135C50AE7CAE7CAE7CAE7CAE7CAE7CAE7CAE7CF0
S1135C60AE7CAE7CAE7CAE7CAE7CAE7CAE7CAE7CE0
S1135C70AE7CAE7CAE7CAE7CAE7CAE7CAE7CAE7CD0
S1135C80AE7CAE7CAE7CAE7CAE7CAE9CAE7CAE7CA0
S1135C90AE7CAE9CAE7CAE9CAE7CAE7CAE7CAE7C70
S1135CA0AE7CAE7CAE9CAE7CAE7CAE9CAE7CAE7C60
S1135CB0AE9CAE9CAE9CAE9CAE9CAE7CAE7CAE7CF0
S1135CC0AE7CAE7CAE7CAE7CAE7CAE9CAE7CAE7C60
S1135CD0AE7CAE9CAE7CAE7CAE7CB67CB69CAE7C20
S1135CE0AE7CB69CAE7CAE7CB69CB69CAE7CAE7CE8
S1135CF0AE7CAE7CAE7CAE7CAE7CAE7CAE9CAE9C10
S1135D00B69CAE7CB67CAE7CAE7CAE7CAE7CAE7C0F
S1135D10B69CAE7CAE9CAE9CB69CAE7CAE7CAE7C9F
S1135D20B69CAE7CB67CB69CAE7CAE7CAE7CAE7CC7
S1135D30AE9CB67CAE7CAE7CB69CB69CB69CAE7C6F
S1135D40AE7CB67CAE7CAE7CAE9CAE9CB69CAE9C6F
S1135D50AE7CAE7CAE7CAE7CB69CAE7CAE7CAE9CA7
S1135D60B67CAE7CB69CB69CB69CB69CAE7CAE7C37
S1135D70AE9CAE7CB67CB69CB67CAE7CAE7CAE7C77
S1135D80AE7CAE9CB69CB69CB67CAE7CAE7CAE7C47
S1135D90AE7CAE9CAE9CAE9CAE9CAE9CB69CB67CDF
S1135DA0B69CAE9CAE7CAE9CAE7CAE7CAE7CAE7C37
S1135DB0AE7CAE7CAE7CAE7CAE7CB67CAE9CAE7C67
S1135DC0AE7CAE9CB67CAE7CAE9CAE7CAE7CAE9C17
S1135DD0B67CAE7CAE7CAE7CAE7CAE7CAE9CAE7C47
S1135DE0AE9CAE7CAE7CAE7CAE7CAE7CAE7CAE7C3F
S1135DF0AE7CAE7CAE7CAE7CAE7CAE7CAE7CAE7C4F
S1135E00AE7CAE7CAE7CAE7CAE7CAE7CAE7CAE7C3E
S1135E10AE7CAE7CAE7CAE7CAE7CAE7CAE7CAE7C2E
S1135E20AE7CAE7CAE7CAE7CAE7CAE7CA65CA65C6E
S1135E30AE7CAE7CAE7CAE7CAE7CAE7CAE7CAE7C0E
S1135E40AE5CAE5CAE7CAE7CAE7CAE7CAE7CAE7C3E
S1135E50AE7CAE7CAE7CAE7CAE7CAE7CAE7CAE7CEE
S1135E60AE7CAE7CAE7CAE7CAE7CAE7CAE7CA67CE6
S1135E70AE7CAE7CAE7CAE7CAE7CAE7CAE7CAE7CCE
S1135E80AE7CAE7CAE7CAE7CAE7CAE7CAE7CAE7CBE
S1135E90AE7CAE7CAE7CAE7CAE7CAE7CAE7CAE7CAE
S1135EA0AE7CAE7CAE7CAE7CAE7CAE7CAE7CAE7C9E
S1135EB0AE9CAE7CAE7CAE7CAE7CAE7CAE7CAE7C6E
S1135EC0AE7CAE7CAE7CAE7CAE7CAE7CAE9CAE7C5E
S1135ED0AE7CAE7CAE7CAE7CAE9CAE9CAE7CAE7C2E
S1135EE0AE7CAE7CAE7CAE7CAE7CAE7CAE7CAE7C5E
S1135EF0AE9CAE7CAE7CAE7CAE7CAE7CAE7CAE7C2E
